{
	"Faucet.sol": {
		"Faucet": {
			"abi": [
				{
					"inputs": [
						{
							"internalType": "address",
							"name": "tokenAddress",
							"type": "address"
						}
					],
					"stateMutability": "payable",
					"type": "constructor"
				},
				{
					"anonymous": false,
					"inputs": [
						{
							"indexed": true,
							"internalType": "address",
							"name": "from",
							"type": "address"
						},
						{
							"indexed": true,
							"internalType": "uint256",
							"name": "amount",
							"type": "uint256"
						}
					],
					"name": "Deposit",
					"type": "event"
				},
				{
					"anonymous": false,
					"inputs": [
						{
							"indexed": true,
							"internalType": "address",
							"name": "to",
							"type": "address"
						},
						{
							"indexed": true,
							"internalType": "uint256",
							"name": "amount",
							"type": "uint256"
						}
					],
					"name": "Withdrawal",
					"type": "event"
				},
				{
					"inputs": [],
					"name": "getBalance",
					"outputs": [
						{
							"internalType": "uint256",
							"name": "",
							"type": "uint256"
						}
					],
					"stateMutability": "view",
					"type": "function"
				},
				{
					"inputs": [],
					"name": "locktIme",
					"outputs": [
						{
							"internalType": "uint256",
							"name": "",
							"type": "uint256"
						}
					],
					"stateMutability": "view",
					"type": "function"
				},
				{
					"inputs": [],
					"name": "requesttoken",
					"outputs": [],
					"stateMutability": "nonpayable",
					"type": "function"
				},
				{
					"inputs": [
						{
							"internalType": "uint256",
							"name": "amount",
							"type": "uint256"
						}
					],
					"name": "setBlockTime",
					"outputs": [],
					"stateMutability": "nonpayable",
					"type": "function"
				},
				{
					"inputs": [
						{
							"internalType": "uint256",
							"name": "amount",
							"type": "uint256"
						}
					],
					"name": "setwithdrawalAmount",
					"outputs": [],
					"stateMutability": "nonpayable",
					"type": "function"
				},
				{
					"inputs": [],
					"name": "token",
					"outputs": [
						{
							"internalType": "contract IERC20",
							"name": "",
							"type": "address"
						}
					],
					"stateMutability": "view",
					"type": "function"
				},
				{
					"inputs": [],
					"name": "withdrawal",
					"outputs": [],
					"stateMutability": "nonpayable",
					"type": "function"
				},
				{
					"inputs": [],
					"name": "withdrawalAmount",
					"outputs": [
						{
							"internalType": "uint256",
							"name": "",
							"type": "uint256"
						}
					],
					"stateMutability": "view",
					"type": "function"
				},
				{
					"stateMutability": "payable",
					"type": "receive"
				}
			],
			"devdoc": {
				"kind": "dev",
				"methods": {},
				"version": 1
			},
			"evm": {
				"assembly": "    /* \"Faucet.sol\":312:2012  contract Faucet{... */\n  mstore(0x40, 0x80)\n    /* \"Faucet.sol\":420:433  50 * (10**18) */\n  0x02b5e3af16b1880000\n    /* \"Faucet.sol\":386:433  uint256 public withdrawalAmount = 50 * (10**18) */\n  0x02\n  sstore\n    /* \"Faucet.sol\":514:523  1 minutes */\n  0x3c\n    /* \"Faucet.sol\":488:523  uint256 public locktIme = 1 minutes */\n  0x04\n  sstore\n    /* \"Faucet.sol\":661:784  constructor(address tokenAddress) payable{... */\n  mload(0x40)\n  sub(codesize, bytecodeSize)\n  dup1\n  bytecodeSize\n  dup4\n  codecopy\n  dup2\n  dup2\n  add\n  0x40\n  mstore\n  dup2\n  add\n  swap1\n  tag_1\n  swap2\n  swap1\n  tag_2\n  jump\t// in\ntag_1:\n    /* \"Faucet.sol\":727:739  tokenAddress */\n  dup1\n    /* \"Faucet.sol\":712:717  token */\n  0x01\n  0x00\n    /* \"Faucet.sol\":712:740  token = IERC20(tokenAddress) */\n  0x0100\n  exp\n  dup2\n  sload\n  dup2\n  0xffffffffffffffffffffffffffffffffffffffff\n  mul\n  not\n  and\n  swap1\n  dup4\n  0xffffffffffffffffffffffffffffffffffffffff\n  and\n  mul\n  or\n  swap1\n  sstore\n  pop\n    /* \"Faucet.sol\":766:776  msg.sender */\n  caller\n    /* \"Faucet.sol\":750:755  owner */\n  0x00\n  dup1\n    /* \"Faucet.sol\":750:777  owner = payable(msg.sender) */\n  0x0100\n  exp\n  dup2\n  sload\n  dup2\n  0xffffffffffffffffffffffffffffffffffffffff\n  mul\n  not\n  and\n  swap1\n  dup4\n  0xffffffffffffffffffffffffffffffffffffffff\n  and\n  mul\n  or\n  swap1\n  sstore\n  pop\n    /* \"Faucet.sol\":661:784  constructor(address tokenAddress) payable{... */\n  pop\n    /* \"Faucet.sol\":312:2012  contract Faucet{... */\n  jump(tag_5)\n    /* \"#utility.yul\":88:205   */\ntag_7:\n    /* \"#utility.yul\":197:198   */\n  0x00\n    /* \"#utility.yul\":194:195   */\n  dup1\n    /* \"#utility.yul\":187:199   */\n  revert\n    /* \"#utility.yul\":334:460   */\ntag_9:\n    /* \"#utility.yul\":371:378   */\n  0x00\n    /* \"#utility.yul\":411:453   */\n  0xffffffffffffffffffffffffffffffffffffffff\n    /* \"#utility.yul\":404:409   */\n  dup3\n    /* \"#utility.yul\":400:454   */\n  and\n    /* \"#utility.yul\":389:454   */\n  swap1\n  pop\n    /* \"#utility.yul\":334:460   */\n  swap2\n  swap1\n  pop\n  jump\t// out\n    /* \"#utility.yul\":466:562   */\ntag_10:\n    /* \"#utility.yul\":503:510   */\n  0x00\n    /* \"#utility.yul\":532:556   */\n  tag_19\n    /* \"#utility.yul\":550:555   */\n  dup3\n    /* \"#utility.yul\":532:556   */\n  tag_9\n  jump\t// in\ntag_19:\n    /* \"#utility.yul\":521:556   */\n  swap1\n  pop\n    /* \"#utility.yul\":466:562   */\n  swap2\n  swap1\n  pop\n  jump\t// out\n    /* \"#utility.yul\":568:690   */\ntag_11:\n    /* \"#utility.yul\":641:665   */\n  tag_21\n    /* \"#utility.yul\":659:664   */\n  dup2\n    /* \"#utility.yul\":641:665   */\n  tag_10\n  jump\t// in\ntag_21:\n    /* \"#utility.yul\":634:639   */\n  dup2\n    /* \"#utility.yul\":631:666   */\n  eq\n    /* \"#utility.yul\":621:684   */\n  tag_22\n  jumpi\n    /* \"#utility.yul\":680:681   */\n  0x00\n    /* \"#utility.yul\":677:678   */\n  dup1\n    /* \"#utility.yul\":670:682   */\n  revert\n    /* \"#utility.yul\":621:684   */\ntag_22:\n    /* \"#utility.yul\":568:690   */\n  pop\n  jump\t// out\n    /* \"#utility.yul\":696:839   */\ntag_12:\n    /* \"#utility.yul\":753:758   */\n  0x00\n    /* \"#utility.yul\":784:790   */\n  dup2\n    /* \"#utility.yul\":778:791   */\n  mload\n    /* \"#utility.yul\":769:791   */\n  swap1\n  pop\n    /* \"#utility.yul\":800:833   */\n  tag_24\n    /* \"#utility.yul\":827:832   */\n  dup2\n    /* \"#utility.yul\":800:833   */\n  tag_11\n  jump\t// in\ntag_24:\n    /* \"#utility.yul\":696:839   */\n  swap3\n  swap2\n  pop\n  pop\n  jump\t// out\n    /* \"#utility.yul\":845:1196   */\ntag_2:\n    /* \"#utility.yul\":915:921   */\n  0x00\n    /* \"#utility.yul\":964:966   */\n  0x20\n    /* \"#utility.yul\":952:961   */\n  dup3\n    /* \"#utility.yul\":943:950   */\n  dup5\n    /* \"#utility.yul\":939:962   */\n  sub\n    /* \"#utility.yul\":935:967   */\n  slt\n    /* \"#utility.yul\":932:1051   */\n  iszero\n  tag_26\n  jumpi\n    /* \"#utility.yul\":970:1049   */\n  tag_27\n  tag_7\n  jump\t// in\ntag_27:\n    /* \"#utility.yul\":932:1051   */\ntag_26:\n    /* \"#utility.yul\":1090:1091   */\n  0x00\n    /* \"#utility.yul\":1115:1179   */\n  tag_28\n    /* \"#utility.yul\":1171:1178   */\n  dup5\n    /* \"#utility.yul\":1162:1168   */\n  dup3\n    /* \"#utility.yul\":1151:1160   */\n  dup6\n    /* \"#utility.yul\":1147:1169   */\n  add\n    /* \"#utility.yul\":1115:1179   */\n  tag_12\n  jump\t// in\ntag_28:\n    /* \"#utility.yul\":1105:1179   */\n  swap2\n  pop\n    /* \"#utility.yul\":1061:1189   */\n  pop\n    /* \"#utility.yul\":845:1196   */\n  swap3\n  swap2\n  pop\n  pop\n  jump\t// out\n    /* \"Faucet.sol\":312:2012  contract Faucet{... */\ntag_5:\n  dataSize(sub_0)\n  dup1\n  dataOffset(sub_0)\n  0x00\n  codecopy\n  0x00\n  return\nstop\n\nsub_0: assembly {\n        /* \"Faucet.sol\":312:2012  contract Faucet{... */\n      mstore(0x40, 0x80)\n      jumpi(tag_1, lt(calldatasize, 0x04))\n      shr(0xe0, calldataload(0x00))\n      dup1\n      0x9bac28d1\n      gt\n      tag_11\n      jumpi\n      dup1\n      0x9bac28d1\n      eq\n      tag_7\n      jumpi\n      dup1\n      0xd4e93292\n      eq\n      tag_8\n      jumpi\n      dup1\n      0xe6e268f4\n      eq\n      tag_9\n      jumpi\n      dup1\n      0xfc0c546a\n      eq\n      tag_10\n      jumpi\n      jump(tag_2)\n    tag_11:\n      dup1\n      0x12065fe0\n      eq\n      tag_3\n      jumpi\n      dup1\n      0x3e5289cb\n      eq\n      tag_4\n      jumpi\n      dup1\n      0x6a0eacf3\n      eq\n      tag_5\n      jumpi\n      dup1\n      0x758b1ce3\n      eq\n      tag_6\n      jumpi\n      jump(tag_2)\n    tag_1:\n      jumpi(tag_2, calldatasize)\n        /* \"Faucet.sol\":1341:1350  msg.value */\n      callvalue\n        /* \"Faucet.sol\":1329:1339  msg.sender */\n      caller\n        /* \"Faucet.sol\":1321:1351  Deposit(msg.sender, msg.value) */\n      0xffffffffffffffffffffffffffffffffffffffff\n      and\n      0xe1fffcc4923d04b559f4d29a8bfc6cda04eb5b0d3c460751c2402c5c5cc9109c\n      mload(0x40)\n      mload(0x40)\n      dup1\n      swap2\n      sub\n      swap1\n      log3\n        /* \"Faucet.sol\":312:2012  contract Faucet{... */\n      stop\n    tag_2:\n      0x00\n      dup1\n      revert\n        /* \"Faucet.sol\":1364:1471  function getBalance() external view returns (uint256){... */\n    tag_3:\n      callvalue\n      dup1\n      iszero\n      tag_14\n      jumpi\n      0x00\n      dup1\n      revert\n    tag_14:\n      pop\n      tag_15\n      tag_16\n      jump\t// in\n    tag_15:\n      mload(0x40)\n      tag_17\n      swap2\n      swap1\n      tag_18\n      jump\t// in\n    tag_17:\n      mload(0x40)\n      dup1\n      swap2\n      sub\n      swap1\n      return\n        /* \"Faucet.sol\":488:523  uint256 public locktIme = 1 minutes */\n    tag_4:\n      callvalue\n      dup1\n      iszero\n      tag_19\n      jumpi\n      0x00\n      dup1\n      revert\n    tag_19:\n      pop\n      tag_20\n      tag_21\n      jump\t// in\n    tag_20:\n      mload(0x40)\n      tag_22\n      swap2\n      swap1\n      tag_18\n      jump\t// in\n    tag_22:\n      mload(0x40)\n      dup1\n      swap2\n      sub\n      swap1\n      return\n        /* \"Faucet.sol\":790:1274  function requesttoken() public {... */\n    tag_5:\n      callvalue\n      dup1\n      iszero\n      tag_23\n      jumpi\n      0x00\n      dup1\n      revert\n    tag_23:\n      pop\n      tag_24\n      tag_25\n      jump\t// in\n    tag_24:\n      stop\n        /* \"Faucet.sol\":1597:1697  function setBlockTime(uint256 amount) public onlyOwner{... */\n    tag_6:\n      callvalue\n      dup1\n      iszero\n      tag_26\n      jumpi\n      0x00\n      dup1\n      revert\n    tag_26:\n      pop\n      tag_27\n      0x04\n      dup1\n      calldatasize\n      sub\n      dup2\n      add\n      swap1\n      tag_28\n      swap2\n      swap1\n      tag_29\n      jump\t// in\n    tag_28:\n      tag_30\n      jump\t// in\n    tag_27:\n      stop\n        /* \"Faucet.sol\":1477:1591  function setwithdrawalAmount(uint256 amount) public onlyOwner{... */\n    tag_7:\n      callvalue\n      dup1\n      iszero\n      tag_31\n      jumpi\n      0x00\n      dup1\n      revert\n    tag_31:\n      pop\n      tag_32\n      0x04\n      dup1\n      calldatasize\n      sub\n      dup2\n      add\n      swap1\n      tag_33\n      swap2\n      swap1\n      tag_29\n      jump\t// in\n    tag_33:\n      tag_34\n      jump\t// in\n    tag_32:\n      stop\n        /* \"Faucet.sol\":1703:1887  function withdrawal() external onlyOwner{... */\n    tag_8:\n      callvalue\n      dup1\n      iszero\n      tag_35\n      jumpi\n      0x00\n      dup1\n      revert\n    tag_35:\n      pop\n      tag_36\n      tag_37\n      jump\t// in\n    tag_36:\n      stop\n        /* \"Faucet.sol\":386:433  uint256 public withdrawalAmount = 50 * (10**18) */\n    tag_9:\n      callvalue\n      dup1\n      iszero\n      tag_38\n      jumpi\n      0x00\n      dup1\n      revert\n    tag_38:\n      pop\n      tag_39\n      tag_40\n      jump\t// in\n    tag_39:\n      mload(0x40)\n      tag_41\n      swap2\n      swap1\n      tag_18\n      jump\t// in\n    tag_41:\n      mload(0x40)\n      dup1\n      swap2\n      sub\n      swap1\n      return\n        /* \"Faucet.sol\":361:380  IERC20 public token */\n    tag_10:\n      callvalue\n      dup1\n      iszero\n      tag_42\n      jumpi\n      0x00\n      dup1\n      revert\n    tag_42:\n      pop\n      tag_43\n      tag_44\n      jump\t// in\n    tag_43:\n      mload(0x40)\n      tag_45\n      swap2\n      swap1\n      tag_46\n      jump\t// in\n    tag_45:\n      mload(0x40)\n      dup1\n      swap2\n      sub\n      swap1\n      return\n        /* \"Faucet.sol\":1364:1471  function getBalance() external view returns (uint256){... */\n    tag_16:\n        /* \"Faucet.sol\":1409:1416  uint256 */\n      0x00\n        /* \"Faucet.sol\":1434:1439  token */\n      0x01\n      0x00\n      swap1\n      sload\n      swap1\n      0x0100\n      exp\n      swap1\n      div\n      0xffffffffffffffffffffffffffffffffffffffff\n      and\n        /* \"Faucet.sol\":1434:1449  token.balanceoF */\n      0xffffffffffffffffffffffffffffffffffffffff\n      and\n      0xbb2bc09c\n        /* \"Faucet.sol\":1458:1462  this */\n      address\n        /* \"Faucet.sol\":1434:1464  token.balanceoF(address(this)) */\n      mload(0x40)\n      dup3\n      0xffffffff\n      and\n      0xe0\n      shl\n      dup2\n      mstore\n      0x04\n      add\n      tag_48\n      swap2\n      swap1\n      tag_49\n      jump\t// in\n    tag_48:\n      0x20\n      mload(0x40)\n      dup1\n      dup4\n      sub\n      dup2\n      dup7\n      gas\n      staticcall\n      iszero\n      dup1\n      iszero\n      tag_51\n      jumpi\n      returndatasize\n      0x00\n      dup1\n      returndatacopy\n      revert(0x00, returndatasize)\n    tag_51:\n      pop\n      pop\n      pop\n      pop\n      mload(0x40)\n      returndatasize\n      not(0x1f)\n      0x1f\n      dup3\n      add\n      and\n      dup3\n      add\n      dup1\n      0x40\n      mstore\n      pop\n      dup2\n      add\n      swap1\n      tag_52\n      swap2\n      swap1\n      tag_53\n      jump\t// in\n    tag_52:\n        /* \"Faucet.sol\":1427:1464  return token.balanceoF(address(this)) */\n      swap1\n      pop\n        /* \"Faucet.sol\":1364:1471  function getBalance() external view returns (uint256){... */\n      swap1\n      jump\t// out\n        /* \"Faucet.sol\":488:523  uint256 public locktIme = 1 minutes */\n    tag_21:\n      sload(0x04)\n      dup2\n      jump\t// out\n        /* \"Faucet.sol\":790:1274  function requesttoken() public {... */\n    tag_25:\n        /* \"Faucet.sol\":861:862  0 */\n      0x00\n        /* \"Faucet.sol\":839:863  msg.sender != address(0) */\n      0xffffffffffffffffffffffffffffffffffffffff\n      and\n        /* \"Faucet.sol\":839:849  msg.sender */\n      caller\n        /* \"Faucet.sol\":839:863  msg.sender != address(0) */\n      0xffffffffffffffffffffffffffffffffffffffff\n      and\n      sub\n        /* \"Faucet.sol\":831:914  require(msg.sender != address(0), \"Request must not originate from a zero account\") */\n      tag_55\n      jumpi\n      mload(0x40)\n      0x08c379a000000000000000000000000000000000000000000000000000000000\n      dup2\n      mstore\n      0x04\n      add\n      tag_56\n      swap1\n      tag_57\n      jump\t// in\n    tag_56:\n      mload(0x40)\n      dup1\n      swap2\n      sub\n      swap1\n      revert\n    tag_55:\n        /* \"Faucet.sol\":966:982  withdrawalAmount */\n      sload(0x02)\n        /* \"Faucet.sol\":932:937  token */\n      0x01\n      0x00\n      swap1\n      sload\n      swap1\n      0x0100\n      exp\n      swap1\n      div\n      0xffffffffffffffffffffffffffffffffffffffff\n      and\n        /* \"Faucet.sol\":932:947  token.balanceoF */\n      0xffffffffffffffffffffffffffffffffffffffff\n      and\n      0xbb2bc09c\n        /* \"Faucet.sol\":956:960  this */\n      address\n        /* \"Faucet.sol\":932:962  token.balanceoF(address(this)) */\n      mload(0x40)\n      dup3\n      0xffffffff\n      and\n      0xe0\n      shl\n      dup2\n      mstore\n      0x04\n      add\n      tag_58\n      swap2\n      swap1\n      tag_49\n      jump\t// in\n    tag_58:\n      0x20\n      mload(0x40)\n      dup1\n      dup4\n      sub\n      dup2\n      dup7\n      gas\n      staticcall\n      iszero\n      dup1\n      iszero\n      tag_60\n      jumpi\n      returndatasize\n      0x00\n      dup1\n      returndatacopy\n      revert(0x00, returndatasize)\n    tag_60:\n      pop\n      pop\n      pop\n      pop\n      mload(0x40)\n      returndatasize\n      not(0x1f)\n      0x1f\n      dup3\n      add\n      and\n      dup3\n      add\n      dup1\n      0x40\n      mstore\n      pop\n      dup2\n      add\n      swap1\n      tag_61\n      swap2\n      swap1\n      tag_53\n      jump\t// in\n    tag_61:\n        /* \"Faucet.sol\":932:982  token.balanceoF(address(this)) >= withdrawalAmount */\n      lt\n      iszero\n        /* \"Faucet.sol\":924:1032  require(token.balanceoF(address(this)) >= withdrawalAmount, \"Insufficient balance in faucet for withdrawal\") */\n      tag_62\n      jumpi\n      mload(0x40)\n      0x08c379a000000000000000000000000000000000000000000000000000000000\n      dup2\n      mstore\n      0x04\n      add\n      tag_63\n      swap1\n      tag_64\n      jump\t// in\n    tag_63:\n      mload(0x40)\n      dup1\n      swap2\n      sub\n      swap1\n      revert\n    tag_62:\n        /* \"Faucet.sol\":1069:1083  nextAccessTime */\n      0x03\n        /* \"Faucet.sol\":1069:1095  nextAccessTime[msg.sender] */\n      0x00\n        /* \"Faucet.sol\":1084:1094  msg.sender */\n      caller\n        /* \"Faucet.sol\":1069:1095  nextAccessTime[msg.sender] */\n      0xffffffffffffffffffffffffffffffffffffffff\n      and\n      0xffffffffffffffffffffffffffffffffffffffff\n      and\n      dup2\n      mstore\n      0x20\n      add\n      swap1\n      dup2\n      mstore\n      0x20\n      add\n      0x00\n      keccak256\n      sload\n        /* \"Faucet.sol\":1050:1065  block.timestamp */\n      timestamp\n        /* \"Faucet.sol\":1050:1095  block.timestamp >= nextAccessTime[msg.sender] */\n      lt\n      iszero\n        /* \"Faucet.sol\":1042:1147  require(block.timestamp >= nextAccessTime[msg.sender], \"Insufficient time elapsed since last withdrawal\") */\n      tag_65\n      jumpi\n      mload(0x40)\n      0x08c379a000000000000000000000000000000000000000000000000000000000\n      dup2\n      mstore\n      0x04\n      add\n      tag_66\n      swap1\n      tag_67\n      jump\t// in\n    tag_66:\n      mload(0x40)\n      dup1\n      swap2\n      sub\n      swap1\n      revert\n    tag_65:\n        /* \"Faucet.sol\":1205:1213  locktIme */\n      sload(0x04)\n        /* \"Faucet.sol\":1187:1202  block.timestamp */\n      timestamp\n        /* \"Faucet.sol\":1187:1213  block.timestamp + locktIme */\n      tag_68\n      swap2\n      swap1\n      tag_69\n      jump\t// in\n    tag_68:\n        /* \"Faucet.sol\":1158:1172  nextAccessTime */\n      0x03\n        /* \"Faucet.sol\":1158:1184  nextAccessTime[msg.sender] */\n      0x00\n        /* \"Faucet.sol\":1173:1183  msg.sender */\n      caller\n        /* \"Faucet.sol\":1158:1184  nextAccessTime[msg.sender] */\n      0xffffffffffffffffffffffffffffffffffffffff\n      and\n      0xffffffffffffffffffffffffffffffffffffffff\n      and\n      dup2\n      mstore\n      0x20\n      add\n      swap1\n      dup2\n      mstore\n      0x20\n      add\n      0x00\n      keccak256\n        /* \"Faucet.sol\":1158:1213  nextAccessTime[msg.sender] = block.timestamp + locktIme */\n      dup2\n      swap1\n      sstore\n      pop\n        /* \"Faucet.sol\":1223:1228  token */\n      0x01\n      0x00\n      swap1\n      sload\n      swap1\n      0x0100\n      exp\n      swap1\n      div\n      0xffffffffffffffffffffffffffffffffffffffff\n      and\n        /* \"Faucet.sol\":1223:1237  token.transfer */\n      0xffffffffffffffffffffffffffffffffffffffff\n      and\n      0xa9059cbb\n        /* \"Faucet.sol\":1238:1248  msg.sender */\n      caller\n        /* \"Faucet.sol\":1250:1266  withdrawalAmount */\n      sload(0x02)\n        /* \"Faucet.sol\":1223:1267  token.transfer(msg.sender, withdrawalAmount) */\n      mload(0x40)\n      dup4\n      0xffffffff\n      and\n      0xe0\n      shl\n      dup2\n      mstore\n      0x04\n      add\n      tag_70\n      swap3\n      swap2\n      swap1\n      tag_71\n      jump\t// in\n    tag_70:\n      0x20\n      mload(0x40)\n      dup1\n      dup4\n      sub\n      dup2\n      dup7\n      gas\n      staticcall\n      iszero\n      dup1\n      iszero\n      tag_73\n      jumpi\n      returndatasize\n      0x00\n      dup1\n      returndatacopy\n      revert(0x00, returndatasize)\n    tag_73:\n      pop\n      pop\n      pop\n      pop\n      mload(0x40)\n      returndatasize\n      not(0x1f)\n      0x1f\n      dup3\n      add\n      and\n      dup3\n      add\n      dup1\n      0x40\n      mstore\n      pop\n      dup2\n      add\n      swap1\n      tag_74\n      swap2\n      swap1\n      tag_75\n      jump\t// in\n    tag_74:\n      pop\n        /* \"Faucet.sol\":790:1274  function requesttoken() public {... */\n      jump\t// out\n        /* \"Faucet.sol\":1597:1697  function setBlockTime(uint256 amount) public onlyOwner{... */\n    tag_30:\n        /* \"Faucet.sol\":1945:1950  owner */\n      0x00\n      dup1\n      sload\n      swap1\n      0x0100\n      exp\n      swap1\n      div\n      0xffffffffffffffffffffffffffffffffffffffff\n      and\n        /* \"Faucet.sol\":1931:1950  msg.sender == owner */\n      0xffffffffffffffffffffffffffffffffffffffff\n      and\n        /* \"Faucet.sol\":1931:1941  msg.sender */\n      caller\n        /* \"Faucet.sol\":1931:1950  msg.sender == owner */\n      0xffffffffffffffffffffffffffffffffffffffff\n      and\n      eq\n        /* \"Faucet.sol\":1923:1991  require(msg.sender == owner, \"Only owner can execute this function\") */\n      tag_77\n      jumpi\n      mload(0x40)\n      0x08c379a000000000000000000000000000000000000000000000000000000000\n      dup2\n      mstore\n      0x04\n      add\n      tag_78\n      swap1\n      tag_79\n      jump\t// in\n    tag_78:\n      mload(0x40)\n      dup1\n      swap2\n      sub\n      swap1\n      revert\n    tag_77:\n        /* \"Faucet.sol\":1681:1690  1 minutes */\n      0x3c\n        /* \"Faucet.sol\":1672:1678  amount */\n      dup2\n        /* \"Faucet.sol\":1672:1690  amount * 1 minutes */\n      tag_81\n      swap2\n      swap1\n      tag_82\n      jump\t// in\n    tag_81:\n        /* \"Faucet.sol\":1661:1669  locktIme */\n      0x04\n        /* \"Faucet.sol\":1661:1690  locktIme = amount * 1 minutes */\n      dup2\n      swap1\n      sstore\n      pop\n        /* \"Faucet.sol\":1597:1697  function setBlockTime(uint256 amount) public onlyOwner{... */\n      pop\n      jump\t// out\n        /* \"Faucet.sol\":1477:1591  function setwithdrawalAmount(uint256 amount) public onlyOwner{... */\n    tag_34:\n        /* \"Faucet.sol\":1945:1950  owner */\n      0x00\n      dup1\n      sload\n      swap1\n      0x0100\n      exp\n      swap1\n      div\n      0xffffffffffffffffffffffffffffffffffffffff\n      and\n        /* \"Faucet.sol\":1931:1950  msg.sender == owner */\n      0xffffffffffffffffffffffffffffffffffffffff\n      and\n        /* \"Faucet.sol\":1931:1941  msg.sender */\n      caller\n        /* \"Faucet.sol\":1931:1950  msg.sender == owner */\n      0xffffffffffffffffffffffffffffffffffffffff\n      and\n      eq\n        /* \"Faucet.sol\":1923:1991  require(msg.sender == owner, \"Only owner can execute this function\") */\n      tag_84\n      jumpi\n      mload(0x40)\n      0x08c379a000000000000000000000000000000000000000000000000000000000\n      dup2\n      mstore\n      0x04\n      add\n      tag_85\n      swap1\n      tag_79\n      jump\t// in\n    tag_85:\n      mload(0x40)\n      dup1\n      swap2\n      sub\n      swap1\n      revert\n    tag_84:\n        /* \"Faucet.sol\":1577:1583  10**18 */\n      0x0de0b6b3a7640000\n        /* \"Faucet.sol\":1567:1573  amount */\n      dup2\n        /* \"Faucet.sol\":1567:1584  amount * (10**18) */\n      tag_87\n      swap2\n      swap1\n      tag_82\n      jump\t// in\n    tag_87:\n        /* \"Faucet.sol\":1548:1564  withdrawalAmount */\n      0x02\n        /* \"Faucet.sol\":1548:1584  withdrawalAmount = amount * (10**18) */\n      dup2\n      swap1\n      sstore\n      pop\n        /* \"Faucet.sol\":1477:1591  function setwithdrawalAmount(uint256 amount) public onlyOwner{... */\n      pop\n      jump\t// out\n        /* \"Faucet.sol\":1703:1887  function withdrawal() external onlyOwner{... */\n    tag_37:\n        /* \"Faucet.sol\":1945:1950  owner */\n      0x00\n      dup1\n      sload\n      swap1\n      0x0100\n      exp\n      swap1\n      div\n      0xffffffffffffffffffffffffffffffffffffffff\n      and\n        /* \"Faucet.sol\":1931:1950  msg.sender == owner */\n      0xffffffffffffffffffffffffffffffffffffffff\n      and\n        /* \"Faucet.sol\":1931:1941  msg.sender */\n      caller\n        /* \"Faucet.sol\":1931:1950  msg.sender == owner */\n      0xffffffffffffffffffffffffffffffffffffffff\n      and\n      eq\n        /* \"Faucet.sol\":1923:1991  require(msg.sender == owner, \"Only owner can execute this function\") */\n      tag_89\n      jumpi\n      mload(0x40)\n      0x08c379a000000000000000000000000000000000000000000000000000000000\n      dup2\n      mstore\n      0x04\n      add\n      tag_90\n      swap1\n      tag_79\n      jump\t// in\n    tag_90:\n      mload(0x40)\n      dup1\n      swap2\n      sub\n      swap1\n      revert\n    tag_89:\n        /* \"Faucet.sol\":1781:1786  token */\n      0x01\n      0x00\n      swap1\n      sload\n      swap1\n      0x0100\n      exp\n      swap1\n      div\n      0xffffffffffffffffffffffffffffffffffffffff\n      and\n        /* \"Faucet.sol\":1781:1796  token.balanceoF */\n      0xffffffffffffffffffffffffffffffffffffffff\n      and\n      0xbb2bc09c\n        /* \"Faucet.sol\":1805:1809  this */\n      address\n        /* \"Faucet.sol\":1781:1811  token.balanceoF(address(this)) */\n      mload(0x40)\n      dup3\n      0xffffffff\n      and\n      0xe0\n      shl\n      dup2\n      mstore\n      0x04\n      add\n      tag_92\n      swap2\n      swap1\n      tag_49\n      jump\t// in\n    tag_92:\n      0x20\n      mload(0x40)\n      dup1\n      dup4\n      sub\n      dup2\n      dup7\n      gas\n      staticcall\n      iszero\n      dup1\n      iszero\n      tag_94\n      jumpi\n      returndatasize\n      0x00\n      dup1\n      returndatacopy\n      revert(0x00, returndatasize)\n    tag_94:\n      pop\n      pop\n      pop\n      pop\n      mload(0x40)\n      returndatasize\n      not(0x1f)\n      0x1f\n      dup3\n      add\n      and\n      dup3\n      add\n      dup1\n      0x40\n      mstore\n      pop\n      dup2\n      add\n      swap1\n      tag_95\n      swap2\n      swap1\n      tag_53\n      jump\t// in\n    tag_95:\n        /* \"Faucet.sol\":1769:1779  msg.sender */\n      caller\n        /* \"Faucet.sol\":1758:1812  Withdrawal(msg.sender, token.balanceoF(address(this))) */\n      0xffffffffffffffffffffffffffffffffffffffff\n      and\n      0x7fcf532c15f0a6db0bd6d0e038bea71d30d808c7d98cb3bf7268a95bf5081b65\n      mload(0x40)\n      mload(0x40)\n      dup1\n      swap2\n      sub\n      swap1\n      log3\n        /* \"Faucet.sol\":1822:1827  token */\n      0x01\n      0x00\n      swap1\n      sload\n      swap1\n      0x0100\n      exp\n      swap1\n      div\n      0xffffffffffffffffffffffffffffffffffffffff\n      and\n        /* \"Faucet.sol\":1822:1836  token.transfer */\n      0xffffffffffffffffffffffffffffffffffffffff\n      and\n      0xa9059cbb\n        /* \"Faucet.sol\":1837:1847  msg.sender */\n      caller\n        /* \"Faucet.sol\":1849:1854  token */\n      0x01\n      0x00\n      swap1\n      sload\n      swap1\n      0x0100\n      exp\n      swap1\n      div\n      0xffffffffffffffffffffffffffffffffffffffff\n      and\n        /* \"Faucet.sol\":1849:1864  token.balanceoF */\n      0xffffffffffffffffffffffffffffffffffffffff\n      and\n      0xbb2bc09c\n        /* \"Faucet.sol\":1873:1877  this */\n      address\n        /* \"Faucet.sol\":1849:1879  token.balanceoF(address(this)) */\n      mload(0x40)\n      dup3\n      0xffffffff\n      and\n      0xe0\n      shl\n      dup2\n      mstore\n      0x04\n      add\n      tag_96\n      swap2\n      swap1\n      tag_49\n      jump\t// in\n    tag_96:\n      0x20\n      mload(0x40)\n      dup1\n      dup4\n      sub\n      dup2\n      dup7\n      gas\n      staticcall\n      iszero\n      dup1\n      iszero\n      tag_98\n      jumpi\n      returndatasize\n      0x00\n      dup1\n      returndatacopy\n      revert(0x00, returndatasize)\n    tag_98:\n      pop\n      pop\n      pop\n      pop\n      mload(0x40)\n      returndatasize\n      not(0x1f)\n      0x1f\n      dup3\n      add\n      and\n      dup3\n      add\n      dup1\n      0x40\n      mstore\n      pop\n      dup2\n      add\n      swap1\n      tag_99\n      swap2\n      swap1\n      tag_53\n      jump\t// in\n    tag_99:\n        /* \"Faucet.sol\":1822:1880  token.transfer(msg.sender, token.balanceoF(address(this))) */\n      mload(0x40)\n      dup4\n      0xffffffff\n      and\n      0xe0\n      shl\n      dup2\n      mstore\n      0x04\n      add\n      tag_100\n      swap3\n      swap2\n      swap1\n      tag_71\n      jump\t// in\n    tag_100:\n      0x20\n      mload(0x40)\n      dup1\n      dup4\n      sub\n      dup2\n      dup7\n      gas\n      staticcall\n      iszero\n      dup1\n      iszero\n      tag_102\n      jumpi\n      returndatasize\n      0x00\n      dup1\n      returndatacopy\n      revert(0x00, returndatasize)\n    tag_102:\n      pop\n      pop\n      pop\n      pop\n      mload(0x40)\n      returndatasize\n      not(0x1f)\n      0x1f\n      dup3\n      add\n      and\n      dup3\n      add\n      dup1\n      0x40\n      mstore\n      pop\n      dup2\n      add\n      swap1\n      tag_103\n      swap2\n      swap1\n      tag_75\n      jump\t// in\n    tag_103:\n      pop\n        /* \"Faucet.sol\":1703:1887  function withdrawal() external onlyOwner{... */\n      jump\t// out\n        /* \"Faucet.sol\":386:433  uint256 public withdrawalAmount = 50 * (10**18) */\n    tag_40:\n      sload(0x02)\n      dup2\n      jump\t// out\n        /* \"Faucet.sol\":361:380  IERC20 public token */\n    tag_44:\n      0x01\n      0x00\n      swap1\n      sload\n      swap1\n      0x0100\n      exp\n      swap1\n      div\n      0xffffffffffffffffffffffffffffffffffffffff\n      and\n      dup2\n      jump\t// out\n        /* \"#utility.yul\":7:84   */\n    tag_104:\n        /* \"#utility.yul\":44:51   */\n      0x00\n        /* \"#utility.yul\":73:78   */\n      dup2\n        /* \"#utility.yul\":62:78   */\n      swap1\n      pop\n        /* \"#utility.yul\":7:84   */\n      swap2\n      swap1\n      pop\n      jump\t// out\n        /* \"#utility.yul\":90:208   */\n    tag_105:\n        /* \"#utility.yul\":177:201   */\n      tag_136\n        /* \"#utility.yul\":195:200   */\n      dup2\n        /* \"#utility.yul\":177:201   */\n      tag_104\n      jump\t// in\n    tag_136:\n        /* \"#utility.yul\":172:175   */\n      dup3\n        /* \"#utility.yul\":165:202   */\n      mstore\n        /* \"#utility.yul\":90:208   */\n      pop\n      pop\n      jump\t// out\n        /* \"#utility.yul\":214:436   */\n    tag_18:\n        /* \"#utility.yul\":307:311   */\n      0x00\n        /* \"#utility.yul\":345:347   */\n      0x20\n        /* \"#utility.yul\":334:343   */\n      dup3\n        /* \"#utility.yul\":330:348   */\n      add\n        /* \"#utility.yul\":322:348   */\n      swap1\n      pop\n        /* \"#utility.yul\":358:429   */\n      tag_138\n        /* \"#utility.yul\":426:427   */\n      0x00\n        /* \"#utility.yul\":415:424   */\n      dup4\n        /* \"#utility.yul\":411:428   */\n      add\n        /* \"#utility.yul\":402:408   */\n      dup5\n        /* \"#utility.yul\":358:429   */\n      tag_105\n      jump\t// in\n    tag_138:\n        /* \"#utility.yul\":214:436   */\n      swap3\n      swap2\n      pop\n      pop\n      jump\t// out\n        /* \"#utility.yul\":523:640   */\n    tag_107:\n        /* \"#utility.yul\":632:633   */\n      0x00\n        /* \"#utility.yul\":629:630   */\n      dup1\n        /* \"#utility.yul\":622:634   */\n      revert\n        /* \"#utility.yul\":769:891   */\n    tag_109:\n        /* \"#utility.yul\":842:866   */\n      tag_143\n        /* \"#utility.yul\":860:865   */\n      dup2\n        /* \"#utility.yul\":842:866   */\n      tag_104\n      jump\t// in\n    tag_143:\n        /* \"#utility.yul\":835:840   */\n      dup2\n        /* \"#utility.yul\":832:867   */\n      eq\n        /* \"#utility.yul\":822:885   */\n      tag_144\n      jumpi\n        /* \"#utility.yul\":881:882   */\n      0x00\n        /* \"#utility.yul\":878:879   */\n      dup1\n        /* \"#utility.yul\":871:883   */\n      revert\n        /* \"#utility.yul\":822:885   */\n    tag_144:\n        /* \"#utility.yul\":769:891   */\n      pop\n      jump\t// out\n        /* \"#utility.yul\":897:1036   */\n    tag_110:\n        /* \"#utility.yul\":943:948   */\n      0x00\n        /* \"#utility.yul\":981:987   */\n      dup2\n        /* \"#utility.yul\":968:988   */\n      calldataload\n        /* \"#utility.yul\":959:988   */\n      swap1\n      pop\n        /* \"#utility.yul\":997:1030   */\n      tag_146\n        /* \"#utility.yul\":1024:1029   */\n      dup2\n        /* \"#utility.yul\":997:1030   */\n      tag_109\n      jump\t// in\n    tag_146:\n        /* \"#utility.yul\":897:1036   */\n      swap3\n      swap2\n      pop\n      pop\n      jump\t// out\n        /* \"#utility.yul\":1042:1371   */\n    tag_29:\n        /* \"#utility.yul\":1101:1107   */\n      0x00\n        /* \"#utility.yul\":1150:1152   */\n      0x20\n        /* \"#utility.yul\":1138:1147   */\n      dup3\n        /* \"#utility.yul\":1129:1136   */\n      dup5\n        /* \"#utility.yul\":1125:1148   */\n      sub\n        /* \"#utility.yul\":1121:1153   */\n      slt\n        /* \"#utility.yul\":1118:1237   */\n      iszero\n      tag_148\n      jumpi\n        /* \"#utility.yul\":1156:1235   */\n      tag_149\n      tag_107\n      jump\t// in\n    tag_149:\n        /* \"#utility.yul\":1118:1237   */\n    tag_148:\n        /* \"#utility.yul\":1276:1277   */\n      0x00\n        /* \"#utility.yul\":1301:1354   */\n      tag_150\n        /* \"#utility.yul\":1346:1353   */\n      dup5\n        /* \"#utility.yul\":1337:1343   */\n      dup3\n        /* \"#utility.yul\":1326:1335   */\n      dup6\n        /* \"#utility.yul\":1322:1344   */\n      add\n        /* \"#utility.yul\":1301:1354   */\n      tag_110\n      jump\t// in\n    tag_150:\n        /* \"#utility.yul\":1291:1354   */\n      swap2\n      pop\n        /* \"#utility.yul\":1247:1364   */\n      pop\n        /* \"#utility.yul\":1042:1371   */\n      swap3\n      swap2\n      pop\n      pop\n      jump\t// out\n        /* \"#utility.yul\":1377:1503   */\n    tag_111:\n        /* \"#utility.yul\":1414:1421   */\n      0x00\n        /* \"#utility.yul\":1454:1496   */\n      0xffffffffffffffffffffffffffffffffffffffff\n        /* \"#utility.yul\":1447:1452   */\n      dup3\n        /* \"#utility.yul\":1443:1497   */\n      and\n        /* \"#utility.yul\":1432:1497   */\n      swap1\n      pop\n        /* \"#utility.yul\":1377:1503   */\n      swap2\n      swap1\n      pop\n      jump\t// out\n        /* \"#utility.yul\":1509:1569   */\n    tag_112:\n        /* \"#utility.yul\":1537:1540   */\n      0x00\n        /* \"#utility.yul\":1558:1563   */\n      dup2\n        /* \"#utility.yul\":1551:1563   */\n      swap1\n      pop\n        /* \"#utility.yul\":1509:1569   */\n      swap2\n      swap1\n      pop\n      jump\t// out\n        /* \"#utility.yul\":1575:1717   */\n    tag_113:\n        /* \"#utility.yul\":1625:1634   */\n      0x00\n        /* \"#utility.yul\":1658:1711   */\n      tag_154\n        /* \"#utility.yul\":1676:1710   */\n      tag_155\n        /* \"#utility.yul\":1685:1709   */\n      tag_156\n        /* \"#utility.yul\":1703:1708   */\n      dup5\n        /* \"#utility.yul\":1685:1709   */\n      tag_111\n      jump\t// in\n    tag_156:\n        /* \"#utility.yul\":1676:1710   */\n      tag_112\n      jump\t// in\n    tag_155:\n        /* \"#utility.yul\":1658:1711   */\n      tag_111\n      jump\t// in\n    tag_154:\n        /* \"#utility.yul\":1645:1711   */\n      swap1\n      pop\n        /* \"#utility.yul\":1575:1717   */\n      swap2\n      swap1\n      pop\n      jump\t// out\n        /* \"#utility.yul\":1723:1849   */\n    tag_114:\n        /* \"#utility.yul\":1773:1782   */\n      0x00\n        /* \"#utility.yul\":1806:1843   */\n      tag_158\n        /* \"#utility.yul\":1837:1842   */\n      dup3\n        /* \"#utility.yul\":1806:1843   */\n      tag_113\n      jump\t// in\n    tag_158:\n        /* \"#utility.yul\":1793:1843   */\n      swap1\n      pop\n        /* \"#utility.yul\":1723:1849   */\n      swap2\n      swap1\n      pop\n      jump\t// out\n        /* \"#utility.yul\":1855:1994   */\n    tag_115:\n        /* \"#utility.yul\":1918:1927   */\n      0x00\n        /* \"#utility.yul\":1951:1988   */\n      tag_160\n        /* \"#utility.yul\":1982:1987   */\n      dup3\n        /* \"#utility.yul\":1951:1988   */\n      tag_114\n      jump\t// in\n    tag_160:\n        /* \"#utility.yul\":1938:1988   */\n      swap1\n      pop\n        /* \"#utility.yul\":1855:1994   */\n      swap2\n      swap1\n      pop\n      jump\t// out\n        /* \"#utility.yul\":2000:2157   */\n    tag_116:\n        /* \"#utility.yul\":2100:2150   */\n      tag_162\n        /* \"#utility.yul\":2144:2149   */\n      dup2\n        /* \"#utility.yul\":2100:2150   */\n      tag_115\n      jump\t// in\n    tag_162:\n        /* \"#utility.yul\":2095:2098   */\n      dup3\n        /* \"#utility.yul\":2088:2151   */\n      mstore\n        /* \"#utility.yul\":2000:2157   */\n      pop\n      pop\n      jump\t// out\n        /* \"#utility.yul\":2163:2411   */\n    tag_46:\n        /* \"#utility.yul\":2269:2273   */\n      0x00\n        /* \"#utility.yul\":2307:2309   */\n      0x20\n        /* \"#utility.yul\":2296:2305   */\n      dup3\n        /* \"#utility.yul\":2292:2310   */\n      add\n        /* \"#utility.yul\":2284:2310   */\n      swap1\n      pop\n        /* \"#utility.yul\":2320:2404   */\n      tag_164\n        /* \"#utility.yul\":2401:2402   */\n      0x00\n        /* \"#utility.yul\":2390:2399   */\n      dup4\n        /* \"#utility.yul\":2386:2403   */\n      add\n        /* \"#utility.yul\":2377:2383   */\n      dup5\n        /* \"#utility.yul\":2320:2404   */\n      tag_116\n      jump\t// in\n    tag_164:\n        /* \"#utility.yul\":2163:2411   */\n      swap3\n      swap2\n      pop\n      pop\n      jump\t// out\n        /* \"#utility.yul\":2417:2513   */\n    tag_117:\n        /* \"#utility.yul\":2454:2461   */\n      0x00\n        /* \"#utility.yul\":2483:2507   */\n      tag_166\n        /* \"#utility.yul\":2501:2506   */\n      dup3\n        /* \"#utility.yul\":2483:2507   */\n      tag_111\n      jump\t// in\n    tag_166:\n        /* \"#utility.yul\":2472:2507   */\n      swap1\n      pop\n        /* \"#utility.yul\":2417:2513   */\n      swap2\n      swap1\n      pop\n      jump\t// out\n        /* \"#utility.yul\":2519:2637   */\n    tag_118:\n        /* \"#utility.yul\":2606:2630   */\n      tag_168\n        /* \"#utility.yul\":2624:2629   */\n      dup2\n        /* \"#utility.yul\":2606:2630   */\n      tag_117\n      jump\t// in\n    tag_168:\n        /* \"#utility.yul\":2601:2604   */\n      dup3\n        /* \"#utility.yul\":2594:2631   */\n      mstore\n        /* \"#utility.yul\":2519:2637   */\n      pop\n      pop\n      jump\t// out\n        /* \"#utility.yul\":2643:2865   */\n    tag_49:\n        /* \"#utility.yul\":2736:2740   */\n      0x00\n        /* \"#utility.yul\":2774:2776   */\n      0x20\n        /* \"#utility.yul\":2763:2772   */\n      dup3\n        /* \"#utility.yul\":2759:2777   */\n      add\n        /* \"#utility.yul\":2751:2777   */\n      swap1\n      pop\n        /* \"#utility.yul\":2787:2858   */\n      tag_170\n        /* \"#utility.yul\":2855:2856   */\n      0x00\n        /* \"#utility.yul\":2844:2853   */\n      dup4\n        /* \"#utility.yul\":2840:2857   */\n      add\n        /* \"#utility.yul\":2831:2837   */\n      dup5\n        /* \"#utility.yul\":2787:2858   */\n      tag_118\n      jump\t// in\n    tag_170:\n        /* \"#utility.yul\":2643:2865   */\n      swap3\n      swap2\n      pop\n      pop\n      jump\t// out\n        /* \"#utility.yul\":2871:3014   */\n    tag_119:\n        /* \"#utility.yul\":2928:2933   */\n      0x00\n        /* \"#utility.yul\":2959:2965   */\n      dup2\n        /* \"#utility.yul\":2953:2966   */\n      mload\n        /* \"#utility.yul\":2944:2966   */\n      swap1\n      pop\n        /* \"#utility.yul\":2975:3008   */\n      tag_172\n        /* \"#utility.yul\":3002:3007   */\n      dup2\n        /* \"#utility.yul\":2975:3008   */\n      tag_109\n      jump\t// in\n    tag_172:\n        /* \"#utility.yul\":2871:3014   */\n      swap3\n      swap2\n      pop\n      pop\n      jump\t// out\n        /* \"#utility.yul\":3020:3371   */\n    tag_53:\n        /* \"#utility.yul\":3090:3096   */\n      0x00\n        /* \"#utility.yul\":3139:3141   */\n      0x20\n        /* \"#utility.yul\":3127:3136   */\n      dup3\n        /* \"#utility.yul\":3118:3125   */\n      dup5\n        /* \"#utility.yul\":3114:3137   */\n      sub\n        /* \"#utility.yul\":3110:3142   */\n      slt\n        /* \"#utility.yul\":3107:3226   */\n      iszero\n      tag_174\n      jumpi\n        /* \"#utility.yul\":3145:3224   */\n      tag_175\n      tag_107\n      jump\t// in\n    tag_175:\n        /* \"#utility.yul\":3107:3226   */\n    tag_174:\n        /* \"#utility.yul\":3265:3266   */\n      0x00\n        /* \"#utility.yul\":3290:3354   */\n      tag_176\n        /* \"#utility.yul\":3346:3353   */\n      dup5\n        /* \"#utility.yul\":3337:3343   */\n      dup3\n        /* \"#utility.yul\":3326:3335   */\n      dup6\n        /* \"#utility.yul\":3322:3344   */\n      add\n        /* \"#utility.yul\":3290:3354   */\n      tag_119\n      jump\t// in\n    tag_176:\n        /* \"#utility.yul\":3280:3354   */\n      swap2\n      pop\n        /* \"#utility.yul\":3236:3364   */\n      pop\n        /* \"#utility.yul\":3020:3371   */\n      swap3\n      swap2\n      pop\n      pop\n      jump\t// out\n        /* \"#utility.yul\":3377:3546   */\n    tag_120:\n        /* \"#utility.yul\":3461:3472   */\n      0x00\n        /* \"#utility.yul\":3495:3501   */\n      dup3\n        /* \"#utility.yul\":3490:3493   */\n      dup3\n        /* \"#utility.yul\":3483:3502   */\n      mstore\n        /* \"#utility.yul\":3535:3539   */\n      0x20\n        /* \"#utility.yul\":3530:3533   */\n      dup3\n        /* \"#utility.yul\":3526:3540   */\n      add\n        /* \"#utility.yul\":3511:3540   */\n      swap1\n      pop\n        /* \"#utility.yul\":3377:3546   */\n      swap3\n      swap2\n      pop\n      pop\n      jump\t// out\n        /* \"#utility.yul\":3552:3785   */\n    tag_121:\n        /* \"#utility.yul\":3692:3726   */\n      0x52657175657374206d757374206e6f74206f726967696e6174652066726f6d20\n        /* \"#utility.yul\":3688:3689   */\n      0x00\n        /* \"#utility.yul\":3680:3686   */\n      dup3\n        /* \"#utility.yul\":3676:3690   */\n      add\n        /* \"#utility.yul\":3669:3727   */\n      mstore\n        /* \"#utility.yul\":3761:3777   */\n      0x61207a65726f206163636f756e74000000000000000000000000000000000000\n        /* \"#utility.yul\":3756:3758   */\n      0x20\n        /* \"#utility.yul\":3748:3754   */\n      dup3\n        /* \"#utility.yul\":3744:3759   */\n      add\n        /* \"#utility.yul\":3737:3778   */\n      mstore\n        /* \"#utility.yul\":3552:3785   */\n      pop\n      jump\t// out\n        /* \"#utility.yul\":3791:4157   */\n    tag_122:\n        /* \"#utility.yul\":3933:3936   */\n      0x00\n        /* \"#utility.yul\":3954:4021   */\n      tag_180\n        /* \"#utility.yul\":4018:4020   */\n      0x2e\n        /* \"#utility.yul\":4013:4016   */\n      dup4\n        /* \"#utility.yul\":3954:4021   */\n      tag_120\n      jump\t// in\n    tag_180:\n        /* \"#utility.yul\":3947:4021   */\n      swap2\n      pop\n        /* \"#utility.yul\":4030:4123   */\n      tag_181\n        /* \"#utility.yul\":4119:4122   */\n      dup3\n        /* \"#utility.yul\":4030:4123   */\n      tag_121\n      jump\t// in\n    tag_181:\n        /* \"#utility.yul\":4148:4150   */\n      0x40\n        /* \"#utility.yul\":4143:4146   */\n      dup3\n        /* \"#utility.yul\":4139:4151   */\n      add\n        /* \"#utility.yul\":4132:4151   */\n      swap1\n      pop\n        /* \"#utility.yul\":3791:4157   */\n      swap2\n      swap1\n      pop\n      jump\t// out\n        /* \"#utility.yul\":4163:4582   */\n    tag_57:\n        /* \"#utility.yul\":4329:4333   */\n      0x00\n        /* \"#utility.yul\":4367:4369   */\n      0x20\n        /* \"#utility.yul\":4356:4365   */\n      dup3\n        /* \"#utility.yul\":4352:4370   */\n      add\n        /* \"#utility.yul\":4344:4370   */\n      swap1\n      pop\n        /* \"#utility.yul\":4416:4425   */\n      dup2\n        /* \"#utility.yul\":4410:4414   */\n      dup2\n        /* \"#utility.yul\":4406:4426   */\n      sub\n        /* \"#utility.yul\":4402:4403   */\n      0x00\n        /* \"#utility.yul\":4391:4400   */\n      dup4\n        /* \"#utility.yul\":4387:4404   */\n      add\n        /* \"#utility.yul\":4380:4427   */\n      mstore\n        /* \"#utility.yul\":4444:4575   */\n      tag_183\n        /* \"#utility.yul\":4570:4574   */\n      dup2\n        /* \"#utility.yul\":4444:4575   */\n      tag_122\n      jump\t// in\n    tag_183:\n        /* \"#utility.yul\":4436:4575   */\n      swap1\n      pop\n        /* \"#utility.yul\":4163:4582   */\n      swap2\n      swap1\n      pop\n      jump\t// out\n        /* \"#utility.yul\":4588:4820   */\n    tag_123:\n        /* \"#utility.yul\":4728:4762   */\n      0x496e73756666696369656e742062616c616e636520696e206661756365742066\n        /* \"#utility.yul\":4724:4725   */\n      0x00\n        /* \"#utility.yul\":4716:4722   */\n      dup3\n        /* \"#utility.yul\":4712:4726   */\n      add\n        /* \"#utility.yul\":4705:4763   */\n      mstore\n        /* \"#utility.yul\":4797:4812   */\n      0x6f72207769746864726177616c00000000000000000000000000000000000000\n        /* \"#utility.yul\":4792:4794   */\n      0x20\n        /* \"#utility.yul\":4784:4790   */\n      dup3\n        /* \"#utility.yul\":4780:4795   */\n      add\n        /* \"#utility.yul\":4773:4813   */\n      mstore\n        /* \"#utility.yul\":4588:4820   */\n      pop\n      jump\t// out\n        /* \"#utility.yul\":4826:5192   */\n    tag_124:\n        /* \"#utility.yul\":4968:4971   */\n      0x00\n        /* \"#utility.yul\":4989:5056   */\n      tag_186\n        /* \"#utility.yul\":5053:5055   */\n      0x2d\n        /* \"#utility.yul\":5048:5051   */\n      dup4\n        /* \"#utility.yul\":4989:5056   */\n      tag_120\n      jump\t// in\n    tag_186:\n        /* \"#utility.yul\":4982:5056   */\n      swap2\n      pop\n        /* \"#utility.yul\":5065:5158   */\n      tag_187\n        /* \"#utility.yul\":5154:5157   */\n      dup3\n        /* \"#utility.yul\":5065:5158   */\n      tag_123\n      jump\t// in\n    tag_187:\n        /* \"#utility.yul\":5183:5185   */\n      0x40\n        /* \"#utility.yul\":5178:5181   */\n      dup3\n        /* \"#utility.yul\":5174:5186   */\n      add\n        /* \"#utility.yul\":5167:5186   */\n      swap1\n      pop\n        /* \"#utility.yul\":4826:5192   */\n      swap2\n      swap1\n      pop\n      jump\t// out\n        /* \"#utility.yul\":5198:5617   */\n    tag_64:\n        /* \"#utility.yul\":5364:5368   */\n      0x00\n        /* \"#utility.yul\":5402:5404   */\n      0x20\n        /* \"#utility.yul\":5391:5400   */\n      dup3\n        /* \"#utility.yul\":5387:5405   */\n      add\n        /* \"#utility.yul\":5379:5405   */\n      swap1\n      pop\n        /* \"#utility.yul\":5451:5460   */\n      dup2\n        /* \"#utility.yul\":5445:5449   */\n      dup2\n        /* \"#utility.yul\":5441:5461   */\n      sub\n        /* \"#utility.yul\":5437:5438   */\n      0x00\n        /* \"#utility.yul\":5426:5435   */\n      dup4\n        /* \"#utility.yul\":5422:5439   */\n      add\n        /* \"#utility.yul\":5415:5462   */\n      mstore\n        /* \"#utility.yul\":5479:5610   */\n      tag_189\n        /* \"#utility.yul\":5605:5609   */\n      dup2\n        /* \"#utility.yul\":5479:5610   */\n      tag_124\n      jump\t// in\n    tag_189:\n        /* \"#utility.yul\":5471:5610   */\n      swap1\n      pop\n        /* \"#utility.yul\":5198:5617   */\n      swap2\n      swap1\n      pop\n      jump\t// out\n        /* \"#utility.yul\":5623:5857   */\n    tag_125:\n        /* \"#utility.yul\":5763:5797   */\n      0x496e73756666696369656e742074696d6520656c61707365642073696e636520\n        /* \"#utility.yul\":5759:5760   */\n      0x00\n        /* \"#utility.yul\":5751:5757   */\n      dup3\n        /* \"#utility.yul\":5747:5761   */\n      add\n        /* \"#utility.yul\":5740:5798   */\n      mstore\n        /* \"#utility.yul\":5832:5849   */\n      0x6c617374207769746864726177616c0000000000000000000000000000000000\n        /* \"#utility.yul\":5827:5829   */\n      0x20\n        /* \"#utility.yul\":5819:5825   */\n      dup3\n        /* \"#utility.yul\":5815:5830   */\n      add\n        /* \"#utility.yul\":5808:5850   */\n      mstore\n        /* \"#utility.yul\":5623:5857   */\n      pop\n      jump\t// out\n        /* \"#utility.yul\":5863:6229   */\n    tag_126:\n        /* \"#utility.yul\":6005:6008   */\n      0x00\n        /* \"#utility.yul\":6026:6093   */\n      tag_192\n        /* \"#utility.yul\":6090:6092   */\n      0x2f\n        /* \"#utility.yul\":6085:6088   */\n      dup4\n        /* \"#utility.yul\":6026:6093   */\n      tag_120\n      jump\t// in\n    tag_192:\n        /* \"#utility.yul\":6019:6093   */\n      swap2\n      pop\n        /* \"#utility.yul\":6102:6195   */\n      tag_193\n        /* \"#utility.yul\":6191:6194   */\n      dup3\n        /* \"#utility.yul\":6102:6195   */\n      tag_125\n      jump\t// in\n    tag_193:\n        /* \"#utility.yul\":6220:6222   */\n      0x40\n        /* \"#utility.yul\":6215:6218   */\n      dup3\n        /* \"#utility.yul\":6211:6223   */\n      add\n        /* \"#utility.yul\":6204:6223   */\n      swap1\n      pop\n        /* \"#utility.yul\":5863:6229   */\n      swap2\n      swap1\n      pop\n      jump\t// out\n        /* \"#utility.yul\":6235:6654   */\n    tag_67:\n        /* \"#utility.yul\":6401:6405   */\n      0x00\n        /* \"#utility.yul\":6439:6441   */\n      0x20\n        /* \"#utility.yul\":6428:6437   */\n      dup3\n        /* \"#utility.yul\":6424:6442   */\n      add\n        /* \"#utility.yul\":6416:6442   */\n      swap1\n      pop\n        /* \"#utility.yul\":6488:6497   */\n      dup2\n        /* \"#utility.yul\":6482:6486   */\n      dup2\n        /* \"#utility.yul\":6478:6498   */\n      sub\n        /* \"#utility.yul\":6474:6475   */\n      0x00\n        /* \"#utility.yul\":6463:6472   */\n      dup4\n        /* \"#utility.yul\":6459:6476   */\n      add\n        /* \"#utility.yul\":6452:6499   */\n      mstore\n        /* \"#utility.yul\":6516:6647   */\n      tag_195\n        /* \"#utility.yul\":6642:6646   */\n      dup2\n        /* \"#utility.yul\":6516:6647   */\n      tag_126\n      jump\t// in\n    tag_195:\n        /* \"#utility.yul\":6508:6647   */\n      swap1\n      pop\n        /* \"#utility.yul\":6235:6654   */\n      swap2\n      swap1\n      pop\n      jump\t// out\n        /* \"#utility.yul\":6660:6840   */\n    tag_127:\n        /* \"#utility.yul\":6708:6785   */\n      0x4e487b7100000000000000000000000000000000000000000000000000000000\n        /* \"#utility.yul\":6705:6706   */\n      0x00\n        /* \"#utility.yul\":6698:6786   */\n      mstore\n        /* \"#utility.yul\":6805:6809   */\n      0x11\n        /* \"#utility.yul\":6802:6803   */\n      0x04\n        /* \"#utility.yul\":6795:6810   */\n      mstore\n        /* \"#utility.yul\":6829:6833   */\n      0x24\n        /* \"#utility.yul\":6826:6827   */\n      0x00\n        /* \"#utility.yul\":6819:6834   */\n      revert\n        /* \"#utility.yul\":6846:7037   */\n    tag_69:\n        /* \"#utility.yul\":6886:6889   */\n      0x00\n        /* \"#utility.yul\":6905:6925   */\n      tag_198\n        /* \"#utility.yul\":6923:6924   */\n      dup3\n        /* \"#utility.yul\":6905:6925   */\n      tag_104\n      jump\t// in\n    tag_198:\n        /* \"#utility.yul\":6900:6925   */\n      swap2\n      pop\n        /* \"#utility.yul\":6939:6959   */\n      tag_199\n        /* \"#utility.yul\":6957:6958   */\n      dup4\n        /* \"#utility.yul\":6939:6959   */\n      tag_104\n      jump\t// in\n    tag_199:\n        /* \"#utility.yul\":6934:6959   */\n      swap3\n      pop\n        /* \"#utility.yul\":6982:6983   */\n      dup3\n        /* \"#utility.yul\":6979:6980   */\n      dup3\n        /* \"#utility.yul\":6975:6984   */\n      add\n        /* \"#utility.yul\":6968:6984   */\n      swap1\n      pop\n        /* \"#utility.yul\":7003:7006   */\n      dup1\n        /* \"#utility.yul\":7000:7001   */\n      dup3\n        /* \"#utility.yul\":6997:7007   */\n      gt\n        /* \"#utility.yul\":6994:7030   */\n      iszero\n      tag_200\n      jumpi\n        /* \"#utility.yul\":7010:7028   */\n      tag_201\n      tag_127\n      jump\t// in\n    tag_201:\n        /* \"#utility.yul\":6994:7030   */\n    tag_200:\n        /* \"#utility.yul\":6846:7037   */\n      swap3\n      swap2\n      pop\n      pop\n      jump\t// out\n        /* \"#utility.yul\":7043:7375   */\n    tag_71:\n        /* \"#utility.yul\":7164:7168   */\n      0x00\n        /* \"#utility.yul\":7202:7204   */\n      0x40\n        /* \"#utility.yul\":7191:7200   */\n      dup3\n        /* \"#utility.yul\":7187:7205   */\n      add\n        /* \"#utility.yul\":7179:7205   */\n      swap1\n      pop\n        /* \"#utility.yul\":7215:7286   */\n      tag_203\n        /* \"#utility.yul\":7283:7284   */\n      0x00\n        /* \"#utility.yul\":7272:7281   */\n      dup4\n        /* \"#utility.yul\":7268:7285   */\n      add\n        /* \"#utility.yul\":7259:7265   */\n      dup6\n        /* \"#utility.yul\":7215:7286   */\n      tag_118\n      jump\t// in\n    tag_203:\n        /* \"#utility.yul\":7296:7368   */\n      tag_204\n        /* \"#utility.yul\":7364:7366   */\n      0x20\n        /* \"#utility.yul\":7353:7362   */\n      dup4\n        /* \"#utility.yul\":7349:7367   */\n      add\n        /* \"#utility.yul\":7340:7346   */\n      dup5\n        /* \"#utility.yul\":7296:7368   */\n      tag_105\n      jump\t// in\n    tag_204:\n        /* \"#utility.yul\":7043:7375   */\n      swap4\n      swap3\n      pop\n      pop\n      pop\n      jump\t// out\n        /* \"#utility.yul\":7381:7471   */\n    tag_128:\n        /* \"#utility.yul\":7415:7422   */\n      0x00\n        /* \"#utility.yul\":7458:7463   */\n      dup2\n        /* \"#utility.yul\":7451:7464   */\n      iszero\n        /* \"#utility.yul\":7444:7465   */\n      iszero\n        /* \"#utility.yul\":7433:7465   */\n      swap1\n      pop\n        /* \"#utility.yul\":7381:7471   */\n      swap2\n      swap1\n      pop\n      jump\t// out\n        /* \"#utility.yul\":7477:7593   */\n    tag_129:\n        /* \"#utility.yul\":7547:7568   */\n      tag_207\n        /* \"#utility.yul\":7562:7567   */\n      dup2\n        /* \"#utility.yul\":7547:7568   */\n      tag_128\n      jump\t// in\n    tag_207:\n        /* \"#utility.yul\":7540:7545   */\n      dup2\n        /* \"#utility.yul\":7537:7569   */\n      eq\n        /* \"#utility.yul\":7527:7587   */\n      tag_208\n      jumpi\n        /* \"#utility.yul\":7583:7584   */\n      0x00\n        /* \"#utility.yul\":7580:7581   */\n      dup1\n        /* \"#utility.yul\":7573:7585   */\n      revert\n        /* \"#utility.yul\":7527:7587   */\n    tag_208:\n        /* \"#utility.yul\":7477:7593   */\n      pop\n      jump\t// out\n        /* \"#utility.yul\":7599:7736   */\n    tag_130:\n        /* \"#utility.yul\":7653:7658   */\n      0x00\n        /* \"#utility.yul\":7684:7690   */\n      dup2\n        /* \"#utility.yul\":7678:7691   */\n      mload\n        /* \"#utility.yul\":7669:7691   */\n      swap1\n      pop\n        /* \"#utility.yul\":7700:7730   */\n      tag_210\n        /* \"#utility.yul\":7724:7729   */\n      dup2\n        /* \"#utility.yul\":7700:7730   */\n      tag_129\n      jump\t// in\n    tag_210:\n        /* \"#utility.yul\":7599:7736   */\n      swap3\n      swap2\n      pop\n      pop\n      jump\t// out\n        /* \"#utility.yul\":7742:8087   */\n    tag_75:\n        /* \"#utility.yul\":7809:7815   */\n      0x00\n        /* \"#utility.yul\":7858:7860   */\n      0x20\n        /* \"#utility.yul\":7846:7855   */\n      dup3\n        /* \"#utility.yul\":7837:7844   */\n      dup5\n        /* \"#utility.yul\":7833:7856   */\n      sub\n        /* \"#utility.yul\":7829:7861   */\n      slt\n        /* \"#utility.yul\":7826:7945   */\n      iszero\n      tag_212\n      jumpi\n        /* \"#utility.yul\":7864:7943   */\n      tag_213\n      tag_107\n      jump\t// in\n    tag_213:\n        /* \"#utility.yul\":7826:7945   */\n    tag_212:\n        /* \"#utility.yul\":7984:7985   */\n      0x00\n        /* \"#utility.yul\":8009:8070   */\n      tag_214\n        /* \"#utility.yul\":8062:8069   */\n      dup5\n        /* \"#utility.yul\":8053:8059   */\n      dup3\n        /* \"#utility.yul\":8042:8051   */\n      dup6\n        /* \"#utility.yul\":8038:8060   */\n      add\n        /* \"#utility.yul\":8009:8070   */\n      tag_130\n      jump\t// in\n    tag_214:\n        /* \"#utility.yul\":7999:8070   */\n      swap2\n      pop\n        /* \"#utility.yul\":7955:8080   */\n      pop\n        /* \"#utility.yul\":7742:8087   */\n      swap3\n      swap2\n      pop\n      pop\n      jump\t// out\n        /* \"#utility.yul\":8093:8316   */\n    tag_131:\n        /* \"#utility.yul\":8233:8267   */\n      0x4f6e6c79206f776e65722063616e206578656375746520746869732066756e63\n        /* \"#utility.yul\":8229:8230   */\n      0x00\n        /* \"#utility.yul\":8221:8227   */\n      dup3\n        /* \"#utility.yul\":8217:8231   */\n      add\n        /* \"#utility.yul\":8210:8268   */\n      mstore\n        /* \"#utility.yul\":8302:8308   */\n      0x74696f6e00000000000000000000000000000000000000000000000000000000\n        /* \"#utility.yul\":8297:8299   */\n      0x20\n        /* \"#utility.yul\":8289:8295   */\n      dup3\n        /* \"#utility.yul\":8285:8300   */\n      add\n        /* \"#utility.yul\":8278:8309   */\n      mstore\n        /* \"#utility.yul\":8093:8316   */\n      pop\n      jump\t// out\n        /* \"#utility.yul\":8322:8688   */\n    tag_132:\n        /* \"#utility.yul\":8464:8467   */\n      0x00\n        /* \"#utility.yul\":8485:8552   */\n      tag_217\n        /* \"#utility.yul\":8549:8551   */\n      0x24\n        /* \"#utility.yul\":8544:8547   */\n      dup4\n        /* \"#utility.yul\":8485:8552   */\n      tag_120\n      jump\t// in\n    tag_217:\n        /* \"#utility.yul\":8478:8552   */\n      swap2\n      pop\n        /* \"#utility.yul\":8561:8654   */\n      tag_218\n        /* \"#utility.yul\":8650:8653   */\n      dup3\n        /* \"#utility.yul\":8561:8654   */\n      tag_131\n      jump\t// in\n    tag_218:\n        /* \"#utility.yul\":8679:8681   */\n      0x40\n        /* \"#utility.yul\":8674:8677   */\n      dup3\n        /* \"#utility.yul\":8670:8682   */\n      add\n        /* \"#utility.yul\":8663:8682   */\n      swap1\n      pop\n        /* \"#utility.yul\":8322:8688   */\n      swap2\n      swap1\n      pop\n      jump\t// out\n        /* \"#utility.yul\":8694:9113   */\n    tag_79:\n        /* \"#utility.yul\":8860:8864   */\n      0x00\n        /* \"#utility.yul\":8898:8900   */\n      0x20\n        /* \"#utility.yul\":8887:8896   */\n      dup3\n        /* \"#utility.yul\":8883:8901   */\n      add\n        /* \"#utility.yul\":8875:8901   */\n      swap1\n      pop\n        /* \"#utility.yul\":8947:8956   */\n      dup2\n        /* \"#utility.yul\":8941:8945   */\n      dup2\n        /* \"#utility.yul\":8937:8957   */\n      sub\n        /* \"#utility.yul\":8933:8934   */\n      0x00\n        /* \"#utility.yul\":8922:8931   */\n      dup4\n        /* \"#utility.yul\":8918:8935   */\n      add\n        /* \"#utility.yul\":8911:8958   */\n      mstore\n        /* \"#utility.yul\":8975:9106   */\n      tag_220\n        /* \"#utility.yul\":9101:9105   */\n      dup2\n        /* \"#utility.yul\":8975:9106   */\n      tag_132\n      jump\t// in\n    tag_220:\n        /* \"#utility.yul\":8967:9106   */\n      swap1\n      pop\n        /* \"#utility.yul\":8694:9113   */\n      swap2\n      swap1\n      pop\n      jump\t// out\n        /* \"#utility.yul\":9119:9529   */\n    tag_82:\n        /* \"#utility.yul\":9159:9166   */\n      0x00\n        /* \"#utility.yul\":9182:9202   */\n      tag_222\n        /* \"#utility.yul\":9200:9201   */\n      dup3\n        /* \"#utility.yul\":9182:9202   */\n      tag_104\n      jump\t// in\n    tag_222:\n        /* \"#utility.yul\":9177:9202   */\n      swap2\n      pop\n        /* \"#utility.yul\":9216:9236   */\n      tag_223\n        /* \"#utility.yul\":9234:9235   */\n      dup4\n        /* \"#utility.yul\":9216:9236   */\n      tag_104\n      jump\t// in\n    tag_223:\n        /* \"#utility.yul\":9211:9236   */\n      swap3\n      pop\n        /* \"#utility.yul\":9271:9272   */\n      dup3\n        /* \"#utility.yul\":9268:9269   */\n      dup3\n        /* \"#utility.yul\":9264:9273   */\n      mul\n        /* \"#utility.yul\":9293:9323   */\n      tag_224\n        /* \"#utility.yul\":9311:9322   */\n      dup2\n        /* \"#utility.yul\":9293:9323   */\n      tag_104\n      jump\t// in\n    tag_224:\n        /* \"#utility.yul\":9282:9323   */\n      swap2\n      pop\n        /* \"#utility.yul\":9472:9473   */\n      dup3\n        /* \"#utility.yul\":9463:9470   */\n      dup3\n        /* \"#utility.yul\":9459:9474   */\n      div\n        /* \"#utility.yul\":9456:9457   */\n      dup5\n        /* \"#utility.yul\":9453:9475   */\n      eq\n        /* \"#utility.yul\":9433:9434   */\n      dup4\n        /* \"#utility.yul\":9426:9435   */\n      iszero\n        /* \"#utility.yul\":9406:9489   */\n      or\n        /* \"#utility.yul\":9383:9522   */\n      tag_225\n      jumpi\n        /* \"#utility.yul\":9502:9520   */\n      tag_226\n      tag_127\n      jump\t// in\n    tag_226:\n        /* \"#utility.yul\":9383:9522   */\n    tag_225:\n        /* \"#utility.yul\":9167:9529   */\n      pop\n        /* \"#utility.yul\":9119:9529   */\n      swap3\n      swap2\n      pop\n      pop\n      jump\t// out\n\n    auxdata: 0xa264697066735822122080dcb414a04598f62f7476df9a72809fa6aed18c6309833612b309fbdcdb52a964736f6c63430008110033\n}\n",
				"bytecode": {
					"linkReferences": {},
					"object": "60806040526802b5e3af16b1880000600255603c60045560405161105638038061105683398181016040528101906100379190610121565b80600160006101000a81548173ffffffffffffffffffffffffffffffffffffffff021916908373ffffffffffffffffffffffffffffffffffffffff160217905550336000806101000a81548173ffffffffffffffffffffffffffffffffffffffff021916908373ffffffffffffffffffffffffffffffffffffffff1602179055505061014e565b600080fd5b600073ffffffffffffffffffffffffffffffffffffffff82169050919050565b60006100ee826100c3565b9050919050565b6100fe816100e3565b811461010957600080fd5b50565b60008151905061011b816100f5565b92915050565b600060208284031215610137576101366100be565b5b60006101458482850161010c565b91505092915050565b610ef98061015d6000396000f3fe60806040526004361061007f5760003560e01c80639bac28d11161004e5780639bac28d114610165578063d4e932921461018e578063e6e268f4146101a5578063fc0c546a146101d0576100ca565b806312065fe0146100cf5780633e5289cb146100fa5780636a0eacf314610125578063758b1ce31461013c576100ca565b366100ca57343373ffffffffffffffffffffffffffffffffffffffff167fe1fffcc4923d04b559f4d29a8bfc6cda04eb5b0d3c460751c2402c5c5cc9109c60405160405180910390a3005b600080fd5b3480156100db57600080fd5b506100e46101fb565b6040516100f191906109a6565b60405180910390f35b34801561010657600080fd5b5061010f61029e565b60405161011c91906109a6565b60405180910390f35b34801561013157600080fd5b5061013a6102a4565b005b34801561014857600080fd5b50610163600480360381019061015e91906109f2565b610569565b005b34801561017157600080fd5b5061018c600480360381019061018791906109f2565b61060d565b005b34801561019a57600080fd5b506101a36106b8565b005b3480156101b157600080fd5b506101ba610961565b6040516101c791906109a6565b60405180910390f35b3480156101dc57600080fd5b506101e5610967565b6040516101f29190610a9e565b60405180910390f35b6000600160009054906101000a900473ffffffffffffffffffffffffffffffffffffffff1673ffffffffffffffffffffffffffffffffffffffff1663bb2bc09c306040518263ffffffff1660e01b81526004016102589190610ada565b602060405180830381865afa158015610275573d6000803e3d6000fd5b505050506040513d601f19601f820116820180604052508101906102999190610b0a565b905090565b60045481565b600073ffffffffffffffffffffffffffffffffffffffff163373ffffffffffffffffffffffffffffffffffffffff1603610313576040517f08c379a000000000000000000000000000000000000000000000000000000000815260040161030a90610bba565b60405180910390fd5b600254600160009054906101000a900473ffffffffffffffffffffffffffffffffffffffff1673ffffffffffffffffffffffffffffffffffffffff1663bb2bc09c306040518263ffffffff1660e01b81526004016103719190610ada565b602060405180830381865afa15801561038e573d6000803e3d6000fd5b505050506040513d601f19601f820116820180604052508101906103b29190610b0a565b10156103f3576040517f08c379a00000000000000000000000000000000000000000000000000000000081526004016103ea90610c4c565b60405180910390fd5b600360003373ffffffffffffffffffffffffffffffffffffffff1673ffffffffffffffffffffffffffffffffffffffff16815260200190815260200160002054421015610475576040517f08c379a000000000000000000000000000000000000000000000000000000000815260040161046c90610cde565b60405180910390fd5b600454426104839190610d2d565b600360003373ffffffffffffffffffffffffffffffffffffffff1673ffffffffffffffffffffffffffffffffffffffff16815260200190815260200160002081905550600160009054906101000a900473ffffffffffffffffffffffffffffffffffffffff1673ffffffffffffffffffffffffffffffffffffffff1663a9059cbb336002546040518363ffffffff1660e01b8152600401610525929190610d61565b602060405180830381865afa158015610542573d6000803e3d6000fd5b505050506040513d601f19601f820116820180604052508101906105669190610dc2565b50565b60008054906101000a900473ffffffffffffffffffffffffffffffffffffffff1673ffffffffffffffffffffffffffffffffffffffff163373ffffffffffffffffffffffffffffffffffffffff16146105f7576040517f08c379a00000000000000000000000000000000000000000000000000000000081526004016105ee90610e61565b60405180910390fd5b603c816106049190610e81565b60048190555050565b60008054906101000a900473ffffffffffffffffffffffffffffffffffffffff1673ffffffffffffffffffffffffffffffffffffffff163373ffffffffffffffffffffffffffffffffffffffff161461069b576040517f08c379a000000000000000000000000000000000000000000000000000000000815260040161069290610e61565b60405180910390fd5b670de0b6b3a7640000816106af9190610e81565b60028190555050565b60008054906101000a900473ffffffffffffffffffffffffffffffffffffffff1673ffffffffffffffffffffffffffffffffffffffff163373ffffffffffffffffffffffffffffffffffffffff1614610746576040517f08c379a000000000000000000000000000000000000000000000000000000000815260040161073d90610e61565b60405180910390fd5b600160009054906101000a900473ffffffffffffffffffffffffffffffffffffffff1673ffffffffffffffffffffffffffffffffffffffff1663bb2bc09c306040518263ffffffff1660e01b81526004016107a19190610ada565b602060405180830381865afa1580156107be573d6000803e3d6000fd5b505050506040513d601f19601f820116820180604052508101906107e29190610b0a565b3373ffffffffffffffffffffffffffffffffffffffff167f7fcf532c15f0a6db0bd6d0e038bea71d30d808c7d98cb3bf7268a95bf5081b6560405160405180910390a3600160009054906101000a900473ffffffffffffffffffffffffffffffffffffffff1673ffffffffffffffffffffffffffffffffffffffff1663a9059cbb33600160009054906101000a900473ffffffffffffffffffffffffffffffffffffffff1673ffffffffffffffffffffffffffffffffffffffff1663bb2bc09c306040518263ffffffff1660e01b81526004016108bf9190610ada565b602060405180830381865afa1580156108dc573d6000803e3d6000fd5b505050506040513d601f19601f820116820180604052508101906109009190610b0a565b6040518363ffffffff1660e01b815260040161091d929190610d61565b602060405180830381865afa15801561093a573d6000803e3d6000fd5b505050506040513d601f19601f8201168201806040525081019061095e9190610dc2565b50565b60025481565b600160009054906101000a900473ffffffffffffffffffffffffffffffffffffffff1681565b6000819050919050565b6109a08161098d565b82525050565b60006020820190506109bb6000830184610997565b92915050565b600080fd5b6109cf8161098d565b81146109da57600080fd5b50565b6000813590506109ec816109c6565b92915050565b600060208284031215610a0857610a076109c1565b5b6000610a16848285016109dd565b91505092915050565b600073ffffffffffffffffffffffffffffffffffffffff82169050919050565b6000819050919050565b6000610a64610a5f610a5a84610a1f565b610a3f565b610a1f565b9050919050565b6000610a7682610a49565b9050919050565b6000610a8882610a6b565b9050919050565b610a9881610a7d565b82525050565b6000602082019050610ab36000830184610a8f565b92915050565b6000610ac482610a1f565b9050919050565b610ad481610ab9565b82525050565b6000602082019050610aef6000830184610acb565b92915050565b600081519050610b04816109c6565b92915050565b600060208284031215610b2057610b1f6109c1565b5b6000610b2e84828501610af5565b91505092915050565b600082825260208201905092915050565b7f52657175657374206d757374206e6f74206f726967696e6174652066726f6d2060008201527f61207a65726f206163636f756e74000000000000000000000000000000000000602082015250565b6000610ba4602e83610b37565b9150610baf82610b48565b604082019050919050565b60006020820190508181036000830152610bd381610b97565b9050919050565b7f496e73756666696369656e742062616c616e636520696e20666175636574206660008201527f6f72207769746864726177616c00000000000000000000000000000000000000602082015250565b6000610c36602d83610b37565b9150610c4182610bda565b604082019050919050565b60006020820190508181036000830152610c6581610c29565b9050919050565b7f496e73756666696369656e742074696d6520656c61707365642073696e63652060008201527f6c617374207769746864726177616c0000000000000000000000000000000000602082015250565b6000610cc8602f83610b37565b9150610cd382610c6c565b604082019050919050565b60006020820190508181036000830152610cf781610cbb565b9050919050565b7f4e487b7100000000000000000000000000000000000000000000000000000000600052601160045260246000fd5b6000610d388261098d565b9150610d438361098d565b9250828201905080821115610d5b57610d5a610cfe565b5b92915050565b6000604082019050610d766000830185610acb565b610d836020830184610997565b9392505050565b60008115159050919050565b610d9f81610d8a565b8114610daa57600080fd5b50565b600081519050610dbc81610d96565b92915050565b600060208284031215610dd857610dd76109c1565b5b6000610de684828501610dad565b91505092915050565b7f4f6e6c79206f776e65722063616e206578656375746520746869732066756e6360008201527f74696f6e00000000000000000000000000000000000000000000000000000000602082015250565b6000610e4b602483610b37565b9150610e5682610def565b604082019050919050565b60006020820190508181036000830152610e7a81610e3e565b9050919050565b6000610e8c8261098d565b9150610e978361098d565b9250828202610ea58161098d565b91508282048414831517610ebc57610ebb610cfe565b5b509291505056fea264697066735822122080dcb414a04598f62f7476df9a72809fa6aed18c6309833612b309fbdcdb52a964736f6c63430008110033",
					"opcodes": "PUSH1 0x80 PUSH1 0x40 MSTORE PUSH9 0x2B5E3AF16B1880000 PUSH1 0x2 SSTORE PUSH1 0x3C PUSH1 0x4 SSTORE PUSH1 0x40 MLOAD PUSH2 0x1056 CODESIZE SUB DUP1 PUSH2 0x1056 DUP4 CODECOPY DUP2 DUP2 ADD PUSH1 0x40 MSTORE DUP2 ADD SWAP1 PUSH2 0x37 SWAP2 SWAP1 PUSH2 0x121 JUMP JUMPDEST DUP1 PUSH1 0x1 PUSH1 0x0 PUSH2 0x100 EXP DUP2 SLOAD DUP2 PUSH20 0xFFFFFFFFFFFFFFFFFFFFFFFFFFFFFFFFFFFFFFFF MUL NOT AND SWAP1 DUP4 PUSH20 0xFFFFFFFFFFFFFFFFFFFFFFFFFFFFFFFFFFFFFFFF AND MUL OR SWAP1 SSTORE POP CALLER PUSH1 0x0 DUP1 PUSH2 0x100 EXP DUP2 SLOAD DUP2 PUSH20 0xFFFFFFFFFFFFFFFFFFFFFFFFFFFFFFFFFFFFFFFF MUL NOT AND SWAP1 DUP4 PUSH20 0xFFFFFFFFFFFFFFFFFFFFFFFFFFFFFFFFFFFFFFFF AND MUL OR SWAP1 SSTORE POP POP PUSH2 0x14E JUMP JUMPDEST PUSH1 0x0 DUP1 REVERT JUMPDEST PUSH1 0x0 PUSH20 0xFFFFFFFFFFFFFFFFFFFFFFFFFFFFFFFFFFFFFFFF DUP3 AND SWAP1 POP SWAP2 SWAP1 POP JUMP JUMPDEST PUSH1 0x0 PUSH2 0xEE DUP3 PUSH2 0xC3 JUMP JUMPDEST SWAP1 POP SWAP2 SWAP1 POP JUMP JUMPDEST PUSH2 0xFE DUP2 PUSH2 0xE3 JUMP JUMPDEST DUP2 EQ PUSH2 0x109 JUMPI PUSH1 0x0 DUP1 REVERT JUMPDEST POP JUMP JUMPDEST PUSH1 0x0 DUP2 MLOAD SWAP1 POP PUSH2 0x11B DUP2 PUSH2 0xF5 JUMP JUMPDEST SWAP3 SWAP2 POP POP JUMP JUMPDEST PUSH1 0x0 PUSH1 0x20 DUP3 DUP5 SUB SLT ISZERO PUSH2 0x137 JUMPI PUSH2 0x136 PUSH2 0xBE JUMP JUMPDEST JUMPDEST PUSH1 0x0 PUSH2 0x145 DUP5 DUP3 DUP6 ADD PUSH2 0x10C JUMP JUMPDEST SWAP2 POP POP SWAP3 SWAP2 POP POP JUMP JUMPDEST PUSH2 0xEF9 DUP1 PUSH2 0x15D PUSH1 0x0 CODECOPY PUSH1 0x0 RETURN INVALID PUSH1 0x80 PUSH1 0x40 MSTORE PUSH1 0x4 CALLDATASIZE LT PUSH2 0x7F JUMPI PUSH1 0x0 CALLDATALOAD PUSH1 0xE0 SHR DUP1 PUSH4 0x9BAC28D1 GT PUSH2 0x4E JUMPI DUP1 PUSH4 0x9BAC28D1 EQ PUSH2 0x165 JUMPI DUP1 PUSH4 0xD4E93292 EQ PUSH2 0x18E JUMPI DUP1 PUSH4 0xE6E268F4 EQ PUSH2 0x1A5 JUMPI DUP1 PUSH4 0xFC0C546A EQ PUSH2 0x1D0 JUMPI PUSH2 0xCA JUMP JUMPDEST DUP1 PUSH4 0x12065FE0 EQ PUSH2 0xCF JUMPI DUP1 PUSH4 0x3E5289CB EQ PUSH2 0xFA JUMPI DUP1 PUSH4 0x6A0EACF3 EQ PUSH2 0x125 JUMPI DUP1 PUSH4 0x758B1CE3 EQ PUSH2 0x13C JUMPI PUSH2 0xCA JUMP JUMPDEST CALLDATASIZE PUSH2 0xCA JUMPI CALLVALUE CALLER PUSH20 0xFFFFFFFFFFFFFFFFFFFFFFFFFFFFFFFFFFFFFFFF AND PUSH32 0xE1FFFCC4923D04B559F4D29A8BFC6CDA04EB5B0D3C460751C2402C5C5CC9109C PUSH1 0x40 MLOAD PUSH1 0x40 MLOAD DUP1 SWAP2 SUB SWAP1 LOG3 STOP JUMPDEST PUSH1 0x0 DUP1 REVERT JUMPDEST CALLVALUE DUP1 ISZERO PUSH2 0xDB JUMPI PUSH1 0x0 DUP1 REVERT JUMPDEST POP PUSH2 0xE4 PUSH2 0x1FB JUMP JUMPDEST PUSH1 0x40 MLOAD PUSH2 0xF1 SWAP2 SWAP1 PUSH2 0x9A6 JUMP JUMPDEST PUSH1 0x40 MLOAD DUP1 SWAP2 SUB SWAP1 RETURN JUMPDEST CALLVALUE DUP1 ISZERO PUSH2 0x106 JUMPI PUSH1 0x0 DUP1 REVERT JUMPDEST POP PUSH2 0x10F PUSH2 0x29E JUMP JUMPDEST PUSH1 0x40 MLOAD PUSH2 0x11C SWAP2 SWAP1 PUSH2 0x9A6 JUMP JUMPDEST PUSH1 0x40 MLOAD DUP1 SWAP2 SUB SWAP1 RETURN JUMPDEST CALLVALUE DUP1 ISZERO PUSH2 0x131 JUMPI PUSH1 0x0 DUP1 REVERT JUMPDEST POP PUSH2 0x13A PUSH2 0x2A4 JUMP JUMPDEST STOP JUMPDEST CALLVALUE DUP1 ISZERO PUSH2 0x148 JUMPI PUSH1 0x0 DUP1 REVERT JUMPDEST POP PUSH2 0x163 PUSH1 0x4 DUP1 CALLDATASIZE SUB DUP2 ADD SWAP1 PUSH2 0x15E SWAP2 SWAP1 PUSH2 0x9F2 JUMP JUMPDEST PUSH2 0x569 JUMP JUMPDEST STOP JUMPDEST CALLVALUE DUP1 ISZERO PUSH2 0x171 JUMPI PUSH1 0x0 DUP1 REVERT JUMPDEST POP PUSH2 0x18C PUSH1 0x4 DUP1 CALLDATASIZE SUB DUP2 ADD SWAP1 PUSH2 0x187 SWAP2 SWAP1 PUSH2 0x9F2 JUMP JUMPDEST PUSH2 0x60D JUMP JUMPDEST STOP JUMPDEST CALLVALUE DUP1 ISZERO PUSH2 0x19A JUMPI PUSH1 0x0 DUP1 REVERT JUMPDEST POP PUSH2 0x1A3 PUSH2 0x6B8 JUMP JUMPDEST STOP JUMPDEST CALLVALUE DUP1 ISZERO PUSH2 0x1B1 JUMPI PUSH1 0x0 DUP1 REVERT JUMPDEST POP PUSH2 0x1BA PUSH2 0x961 JUMP JUMPDEST PUSH1 0x40 MLOAD PUSH2 0x1C7 SWAP2 SWAP1 PUSH2 0x9A6 JUMP JUMPDEST PUSH1 0x40 MLOAD DUP1 SWAP2 SUB SWAP1 RETURN JUMPDEST CALLVALUE DUP1 ISZERO PUSH2 0x1DC JUMPI PUSH1 0x0 DUP1 REVERT JUMPDEST POP PUSH2 0x1E5 PUSH2 0x967 JUMP JUMPDEST PUSH1 0x40 MLOAD PUSH2 0x1F2 SWAP2 SWAP1 PUSH2 0xA9E JUMP JUMPDEST PUSH1 0x40 MLOAD DUP1 SWAP2 SUB SWAP1 RETURN JUMPDEST PUSH1 0x0 PUSH1 0x1 PUSH1 0x0 SWAP1 SLOAD SWAP1 PUSH2 0x100 EXP SWAP1 DIV PUSH20 0xFFFFFFFFFFFFFFFFFFFFFFFFFFFFFFFFFFFFFFFF AND PUSH20 0xFFFFFFFFFFFFFFFFFFFFFFFFFFFFFFFFFFFFFFFF AND PUSH4 0xBB2BC09C ADDRESS PUSH1 0x40 MLOAD DUP3 PUSH4 0xFFFFFFFF AND PUSH1 0xE0 SHL DUP2 MSTORE PUSH1 0x4 ADD PUSH2 0x258 SWAP2 SWAP1 PUSH2 0xADA JUMP JUMPDEST PUSH1 0x20 PUSH1 0x40 MLOAD DUP1 DUP4 SUB DUP2 DUP7 GAS STATICCALL ISZERO DUP1 ISZERO PUSH2 0x275 JUMPI RETURNDATASIZE PUSH1 0x0 DUP1 RETURNDATACOPY RETURNDATASIZE PUSH1 0x0 REVERT JUMPDEST POP POP POP POP PUSH1 0x40 MLOAD RETURNDATASIZE PUSH1 0x1F NOT PUSH1 0x1F DUP3 ADD AND DUP3 ADD DUP1 PUSH1 0x40 MSTORE POP DUP2 ADD SWAP1 PUSH2 0x299 SWAP2 SWAP1 PUSH2 0xB0A JUMP JUMPDEST SWAP1 POP SWAP1 JUMP JUMPDEST PUSH1 0x4 SLOAD DUP2 JUMP JUMPDEST PUSH1 0x0 PUSH20 0xFFFFFFFFFFFFFFFFFFFFFFFFFFFFFFFFFFFFFFFF AND CALLER PUSH20 0xFFFFFFFFFFFFFFFFFFFFFFFFFFFFFFFFFFFFFFFF AND SUB PUSH2 0x313 JUMPI PUSH1 0x40 MLOAD PUSH32 0x8C379A000000000000000000000000000000000000000000000000000000000 DUP2 MSTORE PUSH1 0x4 ADD PUSH2 0x30A SWAP1 PUSH2 0xBBA JUMP JUMPDEST PUSH1 0x40 MLOAD DUP1 SWAP2 SUB SWAP1 REVERT JUMPDEST PUSH1 0x2 SLOAD PUSH1 0x1 PUSH1 0x0 SWAP1 SLOAD SWAP1 PUSH2 0x100 EXP SWAP1 DIV PUSH20 0xFFFFFFFFFFFFFFFFFFFFFFFFFFFFFFFFFFFFFFFF AND PUSH20 0xFFFFFFFFFFFFFFFFFFFFFFFFFFFFFFFFFFFFFFFF AND PUSH4 0xBB2BC09C ADDRESS PUSH1 0x40 MLOAD DUP3 PUSH4 0xFFFFFFFF AND PUSH1 0xE0 SHL DUP2 MSTORE PUSH1 0x4 ADD PUSH2 0x371 SWAP2 SWAP1 PUSH2 0xADA JUMP JUMPDEST PUSH1 0x20 PUSH1 0x40 MLOAD DUP1 DUP4 SUB DUP2 DUP7 GAS STATICCALL ISZERO DUP1 ISZERO PUSH2 0x38E JUMPI RETURNDATASIZE PUSH1 0x0 DUP1 RETURNDATACOPY RETURNDATASIZE PUSH1 0x0 REVERT JUMPDEST POP POP POP POP PUSH1 0x40 MLOAD RETURNDATASIZE PUSH1 0x1F NOT PUSH1 0x1F DUP3 ADD AND DUP3 ADD DUP1 PUSH1 0x40 MSTORE POP DUP2 ADD SWAP1 PUSH2 0x3B2 SWAP2 SWAP1 PUSH2 0xB0A JUMP JUMPDEST LT ISZERO PUSH2 0x3F3 JUMPI PUSH1 0x40 MLOAD PUSH32 0x8C379A000000000000000000000000000000000000000000000000000000000 DUP2 MSTORE PUSH1 0x4 ADD PUSH2 0x3EA SWAP1 PUSH2 0xC4C JUMP JUMPDEST PUSH1 0x40 MLOAD DUP1 SWAP2 SUB SWAP1 REVERT JUMPDEST PUSH1 0x3 PUSH1 0x0 CALLER PUSH20 0xFFFFFFFFFFFFFFFFFFFFFFFFFFFFFFFFFFFFFFFF AND PUSH20 0xFFFFFFFFFFFFFFFFFFFFFFFFFFFFFFFFFFFFFFFF AND DUP2 MSTORE PUSH1 0x20 ADD SWAP1 DUP2 MSTORE PUSH1 0x20 ADD PUSH1 0x0 KECCAK256 SLOAD TIMESTAMP LT ISZERO PUSH2 0x475 JUMPI PUSH1 0x40 MLOAD PUSH32 0x8C379A000000000000000000000000000000000000000000000000000000000 DUP2 MSTORE PUSH1 0x4 ADD PUSH2 0x46C SWAP1 PUSH2 0xCDE JUMP JUMPDEST PUSH1 0x40 MLOAD DUP1 SWAP2 SUB SWAP1 REVERT JUMPDEST PUSH1 0x4 SLOAD TIMESTAMP PUSH2 0x483 SWAP2 SWAP1 PUSH2 0xD2D JUMP JUMPDEST PUSH1 0x3 PUSH1 0x0 CALLER PUSH20 0xFFFFFFFFFFFFFFFFFFFFFFFFFFFFFFFFFFFFFFFF AND PUSH20 0xFFFFFFFFFFFFFFFFFFFFFFFFFFFFFFFFFFFFFFFF AND DUP2 MSTORE PUSH1 0x20 ADD SWAP1 DUP2 MSTORE PUSH1 0x20 ADD PUSH1 0x0 KECCAK256 DUP2 SWAP1 SSTORE POP PUSH1 0x1 PUSH1 0x0 SWAP1 SLOAD SWAP1 PUSH2 0x100 EXP SWAP1 DIV PUSH20 0xFFFFFFFFFFFFFFFFFFFFFFFFFFFFFFFFFFFFFFFF AND PUSH20 0xFFFFFFFFFFFFFFFFFFFFFFFFFFFFFFFFFFFFFFFF AND PUSH4 0xA9059CBB CALLER PUSH1 0x2 SLOAD PUSH1 0x40 MLOAD DUP4 PUSH4 0xFFFFFFFF AND PUSH1 0xE0 SHL DUP2 MSTORE PUSH1 0x4 ADD PUSH2 0x525 SWAP3 SWAP2 SWAP1 PUSH2 0xD61 JUMP JUMPDEST PUSH1 0x20 PUSH1 0x40 MLOAD DUP1 DUP4 SUB DUP2 DUP7 GAS STATICCALL ISZERO DUP1 ISZERO PUSH2 0x542 JUMPI RETURNDATASIZE PUSH1 0x0 DUP1 RETURNDATACOPY RETURNDATASIZE PUSH1 0x0 REVERT JUMPDEST POP POP POP POP PUSH1 0x40 MLOAD RETURNDATASIZE PUSH1 0x1F NOT PUSH1 0x1F DUP3 ADD AND DUP3 ADD DUP1 PUSH1 0x40 MSTORE POP DUP2 ADD SWAP1 PUSH2 0x566 SWAP2 SWAP1 PUSH2 0xDC2 JUMP JUMPDEST POP JUMP JUMPDEST PUSH1 0x0 DUP1 SLOAD SWAP1 PUSH2 0x100 EXP SWAP1 DIV PUSH20 0xFFFFFFFFFFFFFFFFFFFFFFFFFFFFFFFFFFFFFFFF AND PUSH20 0xFFFFFFFFFFFFFFFFFFFFFFFFFFFFFFFFFFFFFFFF AND CALLER PUSH20 0xFFFFFFFFFFFFFFFFFFFFFFFFFFFFFFFFFFFFFFFF AND EQ PUSH2 0x5F7 JUMPI PUSH1 0x40 MLOAD PUSH32 0x8C379A000000000000000000000000000000000000000000000000000000000 DUP2 MSTORE PUSH1 0x4 ADD PUSH2 0x5EE SWAP1 PUSH2 0xE61 JUMP JUMPDEST PUSH1 0x40 MLOAD DUP1 SWAP2 SUB SWAP1 REVERT JUMPDEST PUSH1 0x3C DUP2 PUSH2 0x604 SWAP2 SWAP1 PUSH2 0xE81 JUMP JUMPDEST PUSH1 0x4 DUP2 SWAP1 SSTORE POP POP JUMP JUMPDEST PUSH1 0x0 DUP1 SLOAD SWAP1 PUSH2 0x100 EXP SWAP1 DIV PUSH20 0xFFFFFFFFFFFFFFFFFFFFFFFFFFFFFFFFFFFFFFFF AND PUSH20 0xFFFFFFFFFFFFFFFFFFFFFFFFFFFFFFFFFFFFFFFF AND CALLER PUSH20 0xFFFFFFFFFFFFFFFFFFFFFFFFFFFFFFFFFFFFFFFF AND EQ PUSH2 0x69B JUMPI PUSH1 0x40 MLOAD PUSH32 0x8C379A000000000000000000000000000000000000000000000000000000000 DUP2 MSTORE PUSH1 0x4 ADD PUSH2 0x692 SWAP1 PUSH2 0xE61 JUMP JUMPDEST PUSH1 0x40 MLOAD DUP1 SWAP2 SUB SWAP1 REVERT JUMPDEST PUSH8 0xDE0B6B3A7640000 DUP2 PUSH2 0x6AF SWAP2 SWAP1 PUSH2 0xE81 JUMP JUMPDEST PUSH1 0x2 DUP2 SWAP1 SSTORE POP POP JUMP JUMPDEST PUSH1 0x0 DUP1 SLOAD SWAP1 PUSH2 0x100 EXP SWAP1 DIV PUSH20 0xFFFFFFFFFFFFFFFFFFFFFFFFFFFFFFFFFFFFFFFF AND PUSH20 0xFFFFFFFFFFFFFFFFFFFFFFFFFFFFFFFFFFFFFFFF AND CALLER PUSH20 0xFFFFFFFFFFFFFFFFFFFFFFFFFFFFFFFFFFFFFFFF AND EQ PUSH2 0x746 JUMPI PUSH1 0x40 MLOAD PUSH32 0x8C379A000000000000000000000000000000000000000000000000000000000 DUP2 MSTORE PUSH1 0x4 ADD PUSH2 0x73D SWAP1 PUSH2 0xE61 JUMP JUMPDEST PUSH1 0x40 MLOAD DUP1 SWAP2 SUB SWAP1 REVERT JUMPDEST PUSH1 0x1 PUSH1 0x0 SWAP1 SLOAD SWAP1 PUSH2 0x100 EXP SWAP1 DIV PUSH20 0xFFFFFFFFFFFFFFFFFFFFFFFFFFFFFFFFFFFFFFFF AND PUSH20 0xFFFFFFFFFFFFFFFFFFFFFFFFFFFFFFFFFFFFFFFF AND PUSH4 0xBB2BC09C ADDRESS PUSH1 0x40 MLOAD DUP3 PUSH4 0xFFFFFFFF AND PUSH1 0xE0 SHL DUP2 MSTORE PUSH1 0x4 ADD PUSH2 0x7A1 SWAP2 SWAP1 PUSH2 0xADA JUMP JUMPDEST PUSH1 0x20 PUSH1 0x40 MLOAD DUP1 DUP4 SUB DUP2 DUP7 GAS STATICCALL ISZERO DUP1 ISZERO PUSH2 0x7BE JUMPI RETURNDATASIZE PUSH1 0x0 DUP1 RETURNDATACOPY RETURNDATASIZE PUSH1 0x0 REVERT JUMPDEST POP POP POP POP PUSH1 0x40 MLOAD RETURNDATASIZE PUSH1 0x1F NOT PUSH1 0x1F DUP3 ADD AND DUP3 ADD DUP1 PUSH1 0x40 MSTORE POP DUP2 ADD SWAP1 PUSH2 0x7E2 SWAP2 SWAP1 PUSH2 0xB0A JUMP JUMPDEST CALLER PUSH20 0xFFFFFFFFFFFFFFFFFFFFFFFFFFFFFFFFFFFFFFFF AND PUSH32 0x7FCF532C15F0A6DB0BD6D0E038BEA71D30D808C7D98CB3BF7268A95BF5081B65 PUSH1 0x40 MLOAD PUSH1 0x40 MLOAD DUP1 SWAP2 SUB SWAP1 LOG3 PUSH1 0x1 PUSH1 0x0 SWAP1 SLOAD SWAP1 PUSH2 0x100 EXP SWAP1 DIV PUSH20 0xFFFFFFFFFFFFFFFFFFFFFFFFFFFFFFFFFFFFFFFF AND PUSH20 0xFFFFFFFFFFFFFFFFFFFFFFFFFFFFFFFFFFFFFFFF AND PUSH4 0xA9059CBB CALLER PUSH1 0x1 PUSH1 0x0 SWAP1 SLOAD SWAP1 PUSH2 0x100 EXP SWAP1 DIV PUSH20 0xFFFFFFFFFFFFFFFFFFFFFFFFFFFFFFFFFFFFFFFF AND PUSH20 0xFFFFFFFFFFFFFFFFFFFFFFFFFFFFFFFFFFFFFFFF AND PUSH4 0xBB2BC09C ADDRESS PUSH1 0x40 MLOAD DUP3 PUSH4 0xFFFFFFFF AND PUSH1 0xE0 SHL DUP2 MSTORE PUSH1 0x4 ADD PUSH2 0x8BF SWAP2 SWAP1 PUSH2 0xADA JUMP JUMPDEST PUSH1 0x20 PUSH1 0x40 MLOAD DUP1 DUP4 SUB DUP2 DUP7 GAS STATICCALL ISZERO DUP1 ISZERO PUSH2 0x8DC JUMPI RETURNDATASIZE PUSH1 0x0 DUP1 RETURNDATACOPY RETURNDATASIZE PUSH1 0x0 REVERT JUMPDEST POP POP POP POP PUSH1 0x40 MLOAD RETURNDATASIZE PUSH1 0x1F NOT PUSH1 0x1F DUP3 ADD AND DUP3 ADD DUP1 PUSH1 0x40 MSTORE POP DUP2 ADD SWAP1 PUSH2 0x900 SWAP2 SWAP1 PUSH2 0xB0A JUMP JUMPDEST PUSH1 0x40 MLOAD DUP4 PUSH4 0xFFFFFFFF AND PUSH1 0xE0 SHL DUP2 MSTORE PUSH1 0x4 ADD PUSH2 0x91D SWAP3 SWAP2 SWAP1 PUSH2 0xD61 JUMP JUMPDEST PUSH1 0x20 PUSH1 0x40 MLOAD DUP1 DUP4 SUB DUP2 DUP7 GAS STATICCALL ISZERO DUP1 ISZERO PUSH2 0x93A JUMPI RETURNDATASIZE PUSH1 0x0 DUP1 RETURNDATACOPY RETURNDATASIZE PUSH1 0x0 REVERT JUMPDEST POP POP POP POP PUSH1 0x40 MLOAD RETURNDATASIZE PUSH1 0x1F NOT PUSH1 0x1F DUP3 ADD AND DUP3 ADD DUP1 PUSH1 0x40 MSTORE POP DUP2 ADD SWAP1 PUSH2 0x95E SWAP2 SWAP1 PUSH2 0xDC2 JUMP JUMPDEST POP JUMP JUMPDEST PUSH1 0x2 SLOAD DUP2 JUMP JUMPDEST PUSH1 0x1 PUSH1 0x0 SWAP1 SLOAD SWAP1 PUSH2 0x100 EXP SWAP1 DIV PUSH20 0xFFFFFFFFFFFFFFFFFFFFFFFFFFFFFFFFFFFFFFFF AND DUP2 JUMP JUMPDEST PUSH1 0x0 DUP2 SWAP1 POP SWAP2 SWAP1 POP JUMP JUMPDEST PUSH2 0x9A0 DUP2 PUSH2 0x98D JUMP JUMPDEST DUP3 MSTORE POP POP JUMP JUMPDEST PUSH1 0x0 PUSH1 0x20 DUP3 ADD SWAP1 POP PUSH2 0x9BB PUSH1 0x0 DUP4 ADD DUP5 PUSH2 0x997 JUMP JUMPDEST SWAP3 SWAP2 POP POP JUMP JUMPDEST PUSH1 0x0 DUP1 REVERT JUMPDEST PUSH2 0x9CF DUP2 PUSH2 0x98D JUMP JUMPDEST DUP2 EQ PUSH2 0x9DA JUMPI PUSH1 0x0 DUP1 REVERT JUMPDEST POP JUMP JUMPDEST PUSH1 0x0 DUP2 CALLDATALOAD SWAP1 POP PUSH2 0x9EC DUP2 PUSH2 0x9C6 JUMP JUMPDEST SWAP3 SWAP2 POP POP JUMP JUMPDEST PUSH1 0x0 PUSH1 0x20 DUP3 DUP5 SUB SLT ISZERO PUSH2 0xA08 JUMPI PUSH2 0xA07 PUSH2 0x9C1 JUMP JUMPDEST JUMPDEST PUSH1 0x0 PUSH2 0xA16 DUP5 DUP3 DUP6 ADD PUSH2 0x9DD JUMP JUMPDEST SWAP2 POP POP SWAP3 SWAP2 POP POP JUMP JUMPDEST PUSH1 0x0 PUSH20 0xFFFFFFFFFFFFFFFFFFFFFFFFFFFFFFFFFFFFFFFF DUP3 AND SWAP1 POP SWAP2 SWAP1 POP JUMP JUMPDEST PUSH1 0x0 DUP2 SWAP1 POP SWAP2 SWAP1 POP JUMP JUMPDEST PUSH1 0x0 PUSH2 0xA64 PUSH2 0xA5F PUSH2 0xA5A DUP5 PUSH2 0xA1F JUMP JUMPDEST PUSH2 0xA3F JUMP JUMPDEST PUSH2 0xA1F JUMP JUMPDEST SWAP1 POP SWAP2 SWAP1 POP JUMP JUMPDEST PUSH1 0x0 PUSH2 0xA76 DUP3 PUSH2 0xA49 JUMP JUMPDEST SWAP1 POP SWAP2 SWAP1 POP JUMP JUMPDEST PUSH1 0x0 PUSH2 0xA88 DUP3 PUSH2 0xA6B JUMP JUMPDEST SWAP1 POP SWAP2 SWAP1 POP JUMP JUMPDEST PUSH2 0xA98 DUP2 PUSH2 0xA7D JUMP JUMPDEST DUP3 MSTORE POP POP JUMP JUMPDEST PUSH1 0x0 PUSH1 0x20 DUP3 ADD SWAP1 POP PUSH2 0xAB3 PUSH1 0x0 DUP4 ADD DUP5 PUSH2 0xA8F JUMP JUMPDEST SWAP3 SWAP2 POP POP JUMP JUMPDEST PUSH1 0x0 PUSH2 0xAC4 DUP3 PUSH2 0xA1F JUMP JUMPDEST SWAP1 POP SWAP2 SWAP1 POP JUMP JUMPDEST PUSH2 0xAD4 DUP2 PUSH2 0xAB9 JUMP JUMPDEST DUP3 MSTORE POP POP JUMP JUMPDEST PUSH1 0x0 PUSH1 0x20 DUP3 ADD SWAP1 POP PUSH2 0xAEF PUSH1 0x0 DUP4 ADD DUP5 PUSH2 0xACB JUMP JUMPDEST SWAP3 SWAP2 POP POP JUMP JUMPDEST PUSH1 0x0 DUP2 MLOAD SWAP1 POP PUSH2 0xB04 DUP2 PUSH2 0x9C6 JUMP JUMPDEST SWAP3 SWAP2 POP POP JUMP JUMPDEST PUSH1 0x0 PUSH1 0x20 DUP3 DUP5 SUB SLT ISZERO PUSH2 0xB20 JUMPI PUSH2 0xB1F PUSH2 0x9C1 JUMP JUMPDEST JUMPDEST PUSH1 0x0 PUSH2 0xB2E DUP5 DUP3 DUP6 ADD PUSH2 0xAF5 JUMP JUMPDEST SWAP2 POP POP SWAP3 SWAP2 POP POP JUMP JUMPDEST PUSH1 0x0 DUP3 DUP3 MSTORE PUSH1 0x20 DUP3 ADD SWAP1 POP SWAP3 SWAP2 POP POP JUMP JUMPDEST PUSH32 0x52657175657374206D757374206E6F74206F726967696E6174652066726F6D20 PUSH1 0x0 DUP3 ADD MSTORE PUSH32 0x61207A65726F206163636F756E74000000000000000000000000000000000000 PUSH1 0x20 DUP3 ADD MSTORE POP JUMP JUMPDEST PUSH1 0x0 PUSH2 0xBA4 PUSH1 0x2E DUP4 PUSH2 0xB37 JUMP JUMPDEST SWAP2 POP PUSH2 0xBAF DUP3 PUSH2 0xB48 JUMP JUMPDEST PUSH1 0x40 DUP3 ADD SWAP1 POP SWAP2 SWAP1 POP JUMP JUMPDEST PUSH1 0x0 PUSH1 0x20 DUP3 ADD SWAP1 POP DUP2 DUP2 SUB PUSH1 0x0 DUP4 ADD MSTORE PUSH2 0xBD3 DUP2 PUSH2 0xB97 JUMP JUMPDEST SWAP1 POP SWAP2 SWAP1 POP JUMP JUMPDEST PUSH32 0x496E73756666696369656E742062616C616E636520696E206661756365742066 PUSH1 0x0 DUP3 ADD MSTORE PUSH32 0x6F72207769746864726177616C00000000000000000000000000000000000000 PUSH1 0x20 DUP3 ADD MSTORE POP JUMP JUMPDEST PUSH1 0x0 PUSH2 0xC36 PUSH1 0x2D DUP4 PUSH2 0xB37 JUMP JUMPDEST SWAP2 POP PUSH2 0xC41 DUP3 PUSH2 0xBDA JUMP JUMPDEST PUSH1 0x40 DUP3 ADD SWAP1 POP SWAP2 SWAP1 POP JUMP JUMPDEST PUSH1 0x0 PUSH1 0x20 DUP3 ADD SWAP1 POP DUP2 DUP2 SUB PUSH1 0x0 DUP4 ADD MSTORE PUSH2 0xC65 DUP2 PUSH2 0xC29 JUMP JUMPDEST SWAP1 POP SWAP2 SWAP1 POP JUMP JUMPDEST PUSH32 0x496E73756666696369656E742074696D6520656C61707365642073696E636520 PUSH1 0x0 DUP3 ADD MSTORE PUSH32 0x6C617374207769746864726177616C0000000000000000000000000000000000 PUSH1 0x20 DUP3 ADD MSTORE POP JUMP JUMPDEST PUSH1 0x0 PUSH2 0xCC8 PUSH1 0x2F DUP4 PUSH2 0xB37 JUMP JUMPDEST SWAP2 POP PUSH2 0xCD3 DUP3 PUSH2 0xC6C JUMP JUMPDEST PUSH1 0x40 DUP3 ADD SWAP1 POP SWAP2 SWAP1 POP JUMP JUMPDEST PUSH1 0x0 PUSH1 0x20 DUP3 ADD SWAP1 POP DUP2 DUP2 SUB PUSH1 0x0 DUP4 ADD MSTORE PUSH2 0xCF7 DUP2 PUSH2 0xCBB JUMP JUMPDEST SWAP1 POP SWAP2 SWAP1 POP JUMP JUMPDEST PUSH32 0x4E487B7100000000000000000000000000000000000000000000000000000000 PUSH1 0x0 MSTORE PUSH1 0x11 PUSH1 0x4 MSTORE PUSH1 0x24 PUSH1 0x0 REVERT JUMPDEST PUSH1 0x0 PUSH2 0xD38 DUP3 PUSH2 0x98D JUMP JUMPDEST SWAP2 POP PUSH2 0xD43 DUP4 PUSH2 0x98D JUMP JUMPDEST SWAP3 POP DUP3 DUP3 ADD SWAP1 POP DUP1 DUP3 GT ISZERO PUSH2 0xD5B JUMPI PUSH2 0xD5A PUSH2 0xCFE JUMP JUMPDEST JUMPDEST SWAP3 SWAP2 POP POP JUMP JUMPDEST PUSH1 0x0 PUSH1 0x40 DUP3 ADD SWAP1 POP PUSH2 0xD76 PUSH1 0x0 DUP4 ADD DUP6 PUSH2 0xACB JUMP JUMPDEST PUSH2 0xD83 PUSH1 0x20 DUP4 ADD DUP5 PUSH2 0x997 JUMP JUMPDEST SWAP4 SWAP3 POP POP POP JUMP JUMPDEST PUSH1 0x0 DUP2 ISZERO ISZERO SWAP1 POP SWAP2 SWAP1 POP JUMP JUMPDEST PUSH2 0xD9F DUP2 PUSH2 0xD8A JUMP JUMPDEST DUP2 EQ PUSH2 0xDAA JUMPI PUSH1 0x0 DUP1 REVERT JUMPDEST POP JUMP JUMPDEST PUSH1 0x0 DUP2 MLOAD SWAP1 POP PUSH2 0xDBC DUP2 PUSH2 0xD96 JUMP JUMPDEST SWAP3 SWAP2 POP POP JUMP JUMPDEST PUSH1 0x0 PUSH1 0x20 DUP3 DUP5 SUB SLT ISZERO PUSH2 0xDD8 JUMPI PUSH2 0xDD7 PUSH2 0x9C1 JUMP JUMPDEST JUMPDEST PUSH1 0x0 PUSH2 0xDE6 DUP5 DUP3 DUP6 ADD PUSH2 0xDAD JUMP JUMPDEST SWAP2 POP POP SWAP3 SWAP2 POP POP JUMP JUMPDEST PUSH32 0x4F6E6C79206F776E65722063616E206578656375746520746869732066756E63 PUSH1 0x0 DUP3 ADD MSTORE PUSH32 0x74696F6E00000000000000000000000000000000000000000000000000000000 PUSH1 0x20 DUP3 ADD MSTORE POP JUMP JUMPDEST PUSH1 0x0 PUSH2 0xE4B PUSH1 0x24 DUP4 PUSH2 0xB37 JUMP JUMPDEST SWAP2 POP PUSH2 0xE56 DUP3 PUSH2 0xDEF JUMP JUMPDEST PUSH1 0x40 DUP3 ADD SWAP1 POP SWAP2 SWAP1 POP JUMP JUMPDEST PUSH1 0x0 PUSH1 0x20 DUP3 ADD SWAP1 POP DUP2 DUP2 SUB PUSH1 0x0 DUP4 ADD MSTORE PUSH2 0xE7A DUP2 PUSH2 0xE3E JUMP JUMPDEST SWAP1 POP SWAP2 SWAP1 POP JUMP JUMPDEST PUSH1 0x0 PUSH2 0xE8C DUP3 PUSH2 0x98D JUMP JUMPDEST SWAP2 POP PUSH2 0xE97 DUP4 PUSH2 0x98D JUMP JUMPDEST SWAP3 POP DUP3 DUP3 MUL PUSH2 0xEA5 DUP2 PUSH2 0x98D JUMP JUMPDEST SWAP2 POP DUP3 DUP3 DIV DUP5 EQ DUP4 ISZERO OR PUSH2 0xEBC JUMPI PUSH2 0xEBB PUSH2 0xCFE JUMP JUMPDEST JUMPDEST POP SWAP3 SWAP2 POP POP JUMP INVALID LOG2 PUSH5 0x6970667358 0x22 SLT KECCAK256 DUP1 0xDC 0xB4 EQ LOG0 GASLIMIT SWAP9 0xF6 0x2F PUSH21 0x76DF9A72809FA6AED18C6309833612B309FBDCDB52 0xA9 PUSH5 0x736F6C6343 STOP ADDMOD GT STOP CALLER "
				},
				"gasEstimates": {
					"creation": {
						"codeDepositCost": "766600",
						"executionCost": "infinite",
						"totalCost": "infinite"
					},
					"external": {
						"getBalance()": "infinite",
						"locktIme()": "2452",
						"requesttoken()": "infinite",
						"setBlockTime(uint256)": "infinite",
						"setwithdrawalAmount(uint256)": "infinite",
						"token()": "infinite",
						"withdrawal()": "infinite",
						"withdrawalAmount()": "2473"
					}
				},
				"methodIdentifiers": {
					"getBalance()": "12065fe0",
					"locktIme()": "3e5289cb",
					"requesttoken()": "6a0eacf3",
					"setBlockTime(uint256)": "758b1ce3",
					"setwithdrawalAmount(uint256)": "9bac28d1",
					"token()": "fc0c546a",
					"withdrawal()": "d4e93292",
					"withdrawalAmount()": "e6e268f4"
				}
			},
			"storageLayout": {
				"storage": [
					{
						"astId": 28,
						"contract": "Faucet.sol:Faucet",
						"label": "owner",
						"offset": 0,
						"slot": "0",
						"type": "t_address_payable"
					},
					{
						"astId": 31,
						"contract": "Faucet.sol:Faucet",
						"label": "token",
						"offset": 0,
						"slot": "1",
						"type": "t_contract(IERC20)26"
					},
					{
						"astId": 39,
						"contract": "Faucet.sol:Faucet",
						"label": "withdrawalAmount",
						"offset": 0,
						"slot": "2",
						"type": "t_uint256"
					},
					{
						"astId": 43,
						"contract": "Faucet.sol:Faucet",
						"label": "nextAccessTime",
						"offset": 0,
						"slot": "3",
						"type": "t_mapping(t_address,t_uint256)"
					},
					{
						"astId": 46,
						"contract": "Faucet.sol:Faucet",
						"label": "locktIme",
						"offset": 0,
						"slot": "4",
						"type": "t_uint256"
					}
				],
				"types": {
					"t_address": {
						"encoding": "inplace",
						"label": "address",
						"numberOfBytes": "20"
					},
					"t_address_payable": {
						"encoding": "inplace",
						"label": "address payable",
						"numberOfBytes": "20"
					},
					"t_contract(IERC20)26": {
						"encoding": "inplace",
						"label": "contract IERC20",
						"numberOfBytes": "20"
					},
					"t_mapping(t_address,t_uint256)": {
						"encoding": "mapping",
						"key": "t_address",
						"label": "mapping(address => uint256)",
						"numberOfBytes": "32",
						"value": "t_uint256"
					},
					"t_uint256": {
						"encoding": "inplace",
						"label": "uint256",
						"numberOfBytes": "32"
					}
				}
			},
			"userdoc": {
				"kind": "user",
				"methods": {},
				"version": 1
			}
		}
	}
}